{
  "_format": "hh-sol-artifact-1",
  "contractName": "CallRewards",
  "sourceName": "contracts/CallRewards.sol",
  "abi": [
    {
      "inputs": [],
      "stateMutability": "nonpayable",
      "type": "constructor"
    },
    {
      "inputs": [],
      "name": "completedStudyBonus",
      "outputs": [
        {
          "internalType": "uint256",
          "name": "",
          "type": "uint256"
        }
      ],
      "stateMutability": "view",
      "type": "function"
    },
    {
      "inputs": [
        {
          "internalType": "address",
          "name": "TinToken",
          "type": "address"
        },
        {
          "internalType": "address",
          "name": "_user",
          "type": "address"
        }
      ],
      "name": "completedStudyReward",
      "outputs": [],
      "stateMutability": "nonpayable",
      "type": "function"
    },
    {
      "inputs": [],
      "name": "firstCollectionBonus",
      "outputs": [
        {
          "internalType": "uint256",
          "name": "",
          "type": "uint256"
        }
      ],
      "stateMutability": "view",
      "type": "function"
    },
    {
      "inputs": [
        {
          "internalType": "address",
          "name": "TinToken",
          "type": "address"
        },
        {
          "internalType": "address",
          "name": "_user",
          "type": "address"
        }
      ],
      "name": "firstCollectionReward",
      "outputs": [],
      "stateMutability": "nonpayable",
      "type": "function"
    },
    {
      "inputs": [],
      "name": "invitedFriendBonus",
      "outputs": [
        {
          "internalType": "uint256",
          "name": "",
          "type": "uint256"
        }
      ],
      "stateMutability": "view",
      "type": "function"
    },
    {
      "inputs": [
        {
          "internalType": "address",
          "name": "TinToken",
          "type": "address"
        },
        {
          "internalType": "address",
          "name": "_user",
          "type": "address"
        },
        {
          "internalType": "address",
          "name": "_newUser",
          "type": "address"
        }
      ],
      "name": "invitedFriendReward",
      "outputs": [],
      "stateMutability": "nonpayable",
      "type": "function"
    }
  ],
  "bytecode": "0x6080604052678ac7230489e80000600155674563918244f40000600255670de0b6b3a764000060035534801561003457600080fd5b50336000806101000a81548173ffffffffffffffffffffffffffffffffffffffff021916908373ffffffffffffffffffffffffffffffffffffffff160217905550610988806100846000396000f3fe608060405234801561001057600080fd5b50600436106100625760003560e01c8063052a76e91461006757806323c4a08e1461008557806369ab66e7146100a157806370d0099b146100bd57806393ea9d5b146100db578063e6350f7c146100f9575b600080fd5b61006f610115565b60405161007c91906106ed565b60405180910390f35b61009f600480360381019061009a919061076b565b61011b565b005b6100bb60048036038101906100b691906107be565b610134565b005b6100c5610299565b6040516100d291906106ed565b60405180910390f35b6100e361029f565b6040516100f091906106ed565b60405180910390f35b610113600480360381019061010e91906107be565b6102a5565b005b60015481565b610125838361040a565b61012f838261056f565b505050565b60008273ffffffffffffffffffffffffffffffffffffffff1660008054906101000a900473ffffffffffffffffffffffffffffffffffffffff16836001546040516024016101849392919061080d565b6040516020818303038152906040527f23b872dd000000000000000000000000000000000000000000000000000000007bffffffffffffffffffffffffffffffffffffffffffffffffffffffff19166020820180517bffffffffffffffffffffffffffffffffffffffffffffffffffffffff838183161783525050505060405161020e91906108be565b6000604051808303816000865af19150503d806000811461024b576040519150601f19603f3d011682016040523d82523d6000602084013e610250565b606091505b5050905080610294576040517f08c379a000000000000000000000000000000000000000000000000000000000815260040161028b90610932565b60405180910390fd5b505050565b60025481565b60035481565b60008273ffffffffffffffffffffffffffffffffffffffff1660008054906101000a900473ffffffffffffffffffffffffffffffffffffffff16836003546040516024016102f59392919061080d565b6040516020818303038152906040527f23b872dd000000000000000000000000000000000000000000000000000000007bffffffffffffffffffffffffffffffffffffffffffffffffffffffff19166020820180517bffffffffffffffffffffffffffffffffffffffffffffffffffffffff838183161783525050505060405161037f91906108be565b6000604051808303816000865af19150503d80600081146103bc576040519150601f19603f3d011682016040523d82523d6000602084013e6103c1565b606091505b5050905080610405576040517f08c379a00000000000000000000000000000000000000000000000000000000081526004016103fc90610932565b60405180910390fd5b505050565b60008273ffffffffffffffffffffffffffffffffffffffff1660008054906101000a900473ffffffffffffffffffffffffffffffffffffffff168360025460405160240161045a9392919061080d565b6040516020818303038152906040527f23b872dd000000000000000000000000000000000000000000000000000000007bffffffffffffffffffffffffffffffffffffffffffffffffffffffff19166020820180517bffffffffffffffffffffffffffffffffffffffffffffffffffffffff83818316178352505050506040516104e491906108be565b6000604051808303816000865af19150503d8060008114610521576040519150601f19603f3d011682016040523d82523d6000602084013e610526565b606091505b505090508061056a576040517f08c379a000000000000000000000000000000000000000000000000000000000815260040161056190610932565b60405180910390fd5b505050565b60008273ffffffffffffffffffffffffffffffffffffffff1660008054906101000a900473ffffffffffffffffffffffffffffffffffffffff16836002546040516024016105bf9392919061080d565b6040516020818303038152906040527f23b872dd000000000000000000000000000000000000000000000000000000007bffffffffffffffffffffffffffffffffffffffffffffffffffffffff19166020820180517bffffffffffffffffffffffffffffffffffffffffffffffffffffffff838183161783525050505060405161064991906108be565b6000604051808303816000865af19150503d8060008114610686576040519150601f19603f3d011682016040523d82523d6000602084013e61068b565b606091505b50509050806106cf576040517f08c379a00000000000000000000000000000000000000000000000000000000081526004016106c690610932565b60405180910390fd5b505050565b6000819050919050565b6106e7816106d4565b82525050565b600060208201905061070260008301846106de565b92915050565b600080fd5b600073ffffffffffffffffffffffffffffffffffffffff82169050919050565b60006107388261070d565b9050919050565b6107488161072d565b811461075357600080fd5b50565b6000813590506107658161073f565b92915050565b60008060006060848603121561078457610783610708565b5b600061079286828701610756565b93505060206107a386828701610756565b92505060406107b486828701610756565b9150509250925092565b600080604083850312156107d5576107d4610708565b5b60006107e385828601610756565b92505060206107f485828601610756565b9150509250929050565b6108078161072d565b82525050565b600060608201905061082260008301866107fe565b61082f60208301856107fe565b61083c60408301846106de565b949350505050565b600081519050919050565b600081905092915050565b60005b8381101561087857808201518184015260208101905061085d565b83811115610887576000848401525b50505050565b600061089882610844565b6108a2818561084f565b93506108b281856020860161085a565b80840191505092915050565b60006108ca828461088d565b915081905092915050565b600082825260208201905092915050565b7f5472616e73616374696f6e206661696c65640000000000000000000000000000600082015250565b600061091c6012836108d5565b9150610927826108e6565b602082019050919050565b6000602082019050818103600083015261094b8161090f565b905091905056fea2646970667358221220fcb95eea63efbfea54b4962ee634766a6fbeb10f242dbc032669fe0840bc0c7b64736f6c63430008090033",
  "linkReferences": {},
  "deployedLinkReferences": {}
}