{
  "_format": "hh-sol-artifact-1",
  "contractName": "TinToken",
  "sourceName": "contracts/TinToken.sol",
  "abi": [
    {
      "inputs": [],
      "stateMutability": "nonpayable",
      "type": "constructor"
    },
    {
      "anonymous": false,
      "inputs": [
        {
          "indexed": true,
          "internalType": "address",
          "name": "owner",
          "type": "address"
        },
        {
          "indexed": true,
          "internalType": "address",
          "name": "to",
          "type": "address"
        },
        {
          "indexed": false,
          "internalType": "uint256",
          "name": "amount",
          "type": "uint256"
        }
      ],
      "name": "Approval",
      "type": "event"
    },
    {
      "anonymous": false,
      "inputs": [
        {
          "indexed": true,
          "internalType": "address",
          "name": "from",
          "type": "address"
        },
        {
          "indexed": true,
          "internalType": "address",
          "name": "to",
          "type": "address"
        },
        {
          "indexed": false,
          "internalType": "uint256",
          "name": "amount",
          "type": "uint256"
        }
      ],
      "name": "Transfer",
      "type": "event"
    },
    {
      "stateMutability": "payable",
      "type": "fallback"
    },
    {
      "inputs": [
        {
          "internalType": "address",
          "name": "owner",
          "type": "address"
        },
        {
          "internalType": "address",
          "name": "spender",
          "type": "address"
        }
      ],
      "name": "allowance",
      "outputs": [
        {
          "internalType": "uint256",
          "name": "",
          "type": "uint256"
        }
      ],
      "stateMutability": "view",
      "type": "function"
    },
    {
      "inputs": [
        {
          "internalType": "address",
          "name": "spender",
          "type": "address"
        },
        {
          "internalType": "uint256",
          "name": "amount",
          "type": "uint256"
        }
      ],
      "name": "approve",
      "outputs": [],
      "stateMutability": "nonpayable",
      "type": "function"
    },
    {
      "inputs": [
        {
          "internalType": "address",
          "name": "account",
          "type": "address"
        }
      ],
      "name": "balanceOf",
      "outputs": [
        {
          "internalType": "uint256",
          "name": "",
          "type": "uint256"
        }
      ],
      "stateMutability": "view",
      "type": "function"
    },
    {
      "inputs": [
        {
          "internalType": "uint256",
          "name": "amount",
          "type": "uint256"
        }
      ],
      "name": "burn",
      "outputs": [],
      "stateMutability": "nonpayable",
      "type": "function"
    },
    {
      "inputs": [],
      "name": "decimals",
      "outputs": [
        {
          "internalType": "uint256",
          "name": "",
          "type": "uint256"
        }
      ],
      "stateMutability": "pure",
      "type": "function"
    },
    {
      "inputs": [
        {
          "internalType": "uint256",
          "name": "amount",
          "type": "uint256"
        }
      ],
      "name": "mint",
      "outputs": [],
      "stateMutability": "nonpayable",
      "type": "function"
    },
    {
      "inputs": [],
      "name": "name",
      "outputs": [
        {
          "internalType": "string",
          "name": "",
          "type": "string"
        }
      ],
      "stateMutability": "view",
      "type": "function"
    },
    {
      "inputs": [],
      "name": "symbol",
      "outputs": [
        {
          "internalType": "string",
          "name": "",
          "type": "string"
        }
      ],
      "stateMutability": "view",
      "type": "function"
    },
    {
      "inputs": [],
      "name": "thisOwner",
      "outputs": [
        {
          "internalType": "address",
          "name": "",
          "type": "address"
        }
      ],
      "stateMutability": "view",
      "type": "function"
    },
    {
      "inputs": [],
      "name": "totalSupply",
      "outputs": [
        {
          "internalType": "uint256",
          "name": "",
          "type": "uint256"
        }
      ],
      "stateMutability": "view",
      "type": "function"
    },
    {
      "inputs": [
        {
          "internalType": "address",
          "name": "to",
          "type": "address"
        },
        {
          "internalType": "uint256",
          "name": "amount",
          "type": "uint256"
        }
      ],
      "name": "transfer",
      "outputs": [],
      "stateMutability": "nonpayable",
      "type": "function"
    },
    {
      "inputs": [
        {
          "internalType": "address",
          "name": "sender",
          "type": "address"
        },
        {
          "internalType": "address",
          "name": "recipient",
          "type": "address"
        },
        {
          "internalType": "uint256",
          "name": "amount",
          "type": "uint256"
        }
      ],
      "name": "transferFrom",
      "outputs": [],
      "stateMutability": "nonpayable",
      "type": "function"
    },
    {
      "stateMutability": "payable",
      "type": "receive"
    }
  ],
  "bytecode": "0x6080604052633b9aca006001556040518060400160405280600881526020017f54696e546f6b656e0000000000000000000000000000000000000000000000008152506005908051906020019062000059929190620002b1565b506040518060400160405280600381526020017f54544e000000000000000000000000000000000000000000000000000000000081525060069080519060200190620000a7929190620002b1565b50348015620000b557600080fd5b50336000806101000a81548173ffffffffffffffffffffffffffffffffffffffff021916908373ffffffffffffffffffffffffffffffffffffffff160217905550620001336200010a6200013960201b60201c565b600a620001189190620004ee565b6001546200012791906200053f565b6200014260201b60201c565b62000713565b60006012905090565b60008054906101000a900473ffffffffffffffffffffffffffffffffffffffff1673ffffffffffffffffffffffffffffffffffffffff163373ffffffffffffffffffffffffffffffffffffffff1614620001d3576040517f08c379a0000000000000000000000000000000000000000000000000000000008152600401620001ca9062000601565b60405180910390fd5b80600360003373ffffffffffffffffffffffffffffffffffffffff1673ffffffffffffffffffffffffffffffffffffffff168152602001908152602001600020600082825462000224919062000623565b9250508190555080600260008282546200023f919062000623565b925050819055503373ffffffffffffffffffffffffffffffffffffffff16600073ffffffffffffffffffffffffffffffffffffffff167fddf252ad1be2c89b69c2b068fc378daa952ba7f163c4a11628f55a4df523b3ef83604051620002a6919062000691565b60405180910390a350565b828054620002bf90620006dd565b90600052602060002090601f016020900481019282620002e357600085556200032f565b82601f10620002fe57805160ff19168380011785556200032f565b828001600101855582156200032f579182015b828111156200032e57825182559160200191906001019062000311565b5b5090506200033e919062000342565b5090565b5b808211156200035d57600081600090555060010162000343565b5090565b7f4e487b7100000000000000000000000000000000000000000000000000000000600052601160045260246000fd5b60008160011c9050919050565b6000808291508390505b6001851115620003ef57808604811115620003c757620003c662000361565b5b6001851615620003d75780820291505b8081029050620003e78562000390565b9450620003a7565b94509492505050565b6000826200040a5760019050620004dd565b816200041a5760009050620004dd565b81600181146200043357600281146200043e5762000474565b6001915050620004dd565b60ff84111562000453576200045262000361565b5b8360020a9150848211156200046d576200046c62000361565b5b50620004dd565b5060208310610133831016604e8410600b8410161715620004ae5782820a905083811115620004a857620004a762000361565b5b620004dd565b620004bd84848460016200039d565b92509050818404811115620004d757620004d662000361565b5b81810290505b9392505050565b6000819050919050565b6000620004fb82620004e4565b91506200050883620004e4565b9250620005377fffffffffffffffffffffffffffffffffffffffffffffffffffffffffffffffff8484620003f8565b905092915050565b60006200054c82620004e4565b91506200055983620004e4565b9250817fffffffffffffffffffffffffffffffffffffffffffffffffffffffffffffffff048311821515161562000595576200059462000361565b5b828202905092915050565b600082825260208201905092915050565b7f596f7520617265206e6f7420616e206f776e6572210000000000000000000000600082015250565b6000620005e9601583620005a0565b9150620005f682620005b1565b602082019050919050565b600060208201905081810360008301526200061c81620005da565b9050919050565b60006200063082620004e4565b91506200063d83620004e4565b9250827fffffffffffffffffffffffffffffffffffffffffffffffffffffffffffffffff0382111562000675576200067462000361565b5b828201905092915050565b6200068b81620004e4565b82525050565b6000602082019050620006a8600083018462000680565b92915050565b7f4e487b7100000000000000000000000000000000000000000000000000000000600052602260045260246000fd5b60006002820490506001821680620006f657607f821691505b602082108114156200070d576200070c620006ae565b5b50919050565b61115380620007236000396000f3fe6080604052600436106100ab5760003560e01c806370a082311161006457806370a08231146101b057806395d89b41146101ed578063a0712d6814610218578063a9059cbb14610241578063dd62ed3e1461026a578063e7c9922f146102a7576100b2565b806306fdde03146100b4578063095ea7b3146100df57806318160ddd1461010857806323b872dd14610133578063313ce5671461015c57806342966c6814610187576100b2565b366100b257005b005b3480156100c057600080fd5b506100c96102d2565b6040516100d69190610cef565b60405180910390f35b3480156100eb57600080fd5b5061010660048036038101906101019190610daa565b610360565b005b34801561011457600080fd5b5061011d61044a565b60405161012a9190610df9565b60405180910390f35b34801561013f57600080fd5b5061015a60048036038101906101559190610e14565b610454565b005b34801561016857600080fd5b5061017161064c565b60405161017e9190610df9565b60405180910390f35b34801561019357600080fd5b506101ae60048036038101906101a99190610e67565b610655565b005b3480156101bc57600080fd5b506101d760048036038101906101d29190610e94565b61080a565b6040516101e49190610df9565b60405180910390f35b3480156101f957600080fd5b50610202610853565b60405161020f9190610cef565b60405180910390f35b34801561022457600080fd5b5061023f600480360381019061023a9190610e67565b6108e1565b005b34801561024d57600080fd5b5061026860048036038101906102639190610daa565b610a47565b005b34801561027657600080fd5b50610291600480360381019061028c9190610ec1565b610bab565b60405161029e9190610df9565b60405180910390f35b3480156102b357600080fd5b506102bc610c32565b6040516102c99190610f10565b60405180910390f35b600580546102df90610f5a565b80601f016020809104026020016040519081016040528092919081815260200182805461030b90610f5a565b80156103585780601f1061032d57610100808354040283529160200191610358565b820191906000526020600020905b81548152906001019060200180831161033b57829003601f168201915b505050505081565b80600460003373ffffffffffffffffffffffffffffffffffffffff1673ffffffffffffffffffffffffffffffffffffffff16815260200190815260200160002060008473ffffffffffffffffffffffffffffffffffffffff1673ffffffffffffffffffffffffffffffffffffffff168152602001908152602001600020819055508173ffffffffffffffffffffffffffffffffffffffff163373ffffffffffffffffffffffffffffffffffffffff167f8c5be1e5ebec7d5bd14f71427d1e84f3dd0314c0f7b2291e5b200ac8c7c3b9258360405161043e9190610df9565b60405180910390a35050565b6000600254905090565b8281806104608361080a565b10156104a1576040517f08c379a000000000000000000000000000000000000000000000000000000000815260040161049890610fd8565b60405180910390fd5b82600460008773ffffffffffffffffffffffffffffffffffffffff1673ffffffffffffffffffffffffffffffffffffffff16815260200190815260200160002060003373ffffffffffffffffffffffffffffffffffffffff1673ffffffffffffffffffffffffffffffffffffffff168152602001908152602001600020600082825461052d9190611027565b9250508190555082600360008773ffffffffffffffffffffffffffffffffffffffff1673ffffffffffffffffffffffffffffffffffffffff16815260200190815260200160002060008282546105839190611027565b9250508190555082600360008673ffffffffffffffffffffffffffffffffffffffff1673ffffffffffffffffffffffffffffffffffffffff16815260200190815260200160002060008282546105d9919061105b565b925050819055508373ffffffffffffffffffffffffffffffffffffffff168573ffffffffffffffffffffffffffffffffffffffff167fddf252ad1be2c89b69c2b068fc378daa952ba7f163c4a11628f55a4df523b3ef8560405161063d9190610df9565b60405180910390a35050505050565b60006012905090565b3381806106618361080a565b10156106a2576040517f08c379a000000000000000000000000000000000000000000000000000000000815260040161069990610fd8565b60405180910390fd5b60008054906101000a900473ffffffffffffffffffffffffffffffffffffffff1673ffffffffffffffffffffffffffffffffffffffff163373ffffffffffffffffffffffffffffffffffffffff1614610730576040517f08c379a0000000000000000000000000000000000000000000000000000000008152600401610727906110fd565b60405180910390fd5b82600360003373ffffffffffffffffffffffffffffffffffffffff1673ffffffffffffffffffffffffffffffffffffffff168152602001908152602001600020600082825461077f9190611027565b9250508190555082600260008282546107989190611027565b92505081905550600073ffffffffffffffffffffffffffffffffffffffff163373ffffffffffffffffffffffffffffffffffffffff167fddf252ad1be2c89b69c2b068fc378daa952ba7f163c4a11628f55a4df523b3ef856040516107fd9190610df9565b60405180910390a3505050565b6000600360008373ffffffffffffffffffffffffffffffffffffffff1673ffffffffffffffffffffffffffffffffffffffff168152602001908152602001600020549050919050565b6006805461086090610f5a565b80601f016020809104026020016040519081016040528092919081815260200182805461088c90610f5a565b80156108d95780601f106108ae576101008083540402835291602001916108d9565b820191906000526020600020905b8154815290600101906020018083116108bc57829003601f168201915b505050505081565b60008054906101000a900473ffffffffffffffffffffffffffffffffffffffff1673ffffffffffffffffffffffffffffffffffffffff163373ffffffffffffffffffffffffffffffffffffffff161461096f576040517f08c379a0000000000000000000000000000000000000000000000000000000008152600401610966906110fd565b60405180910390fd5b80600360003373ffffffffffffffffffffffffffffffffffffffff1673ffffffffffffffffffffffffffffffffffffffff16815260200190815260200160002060008282546109be919061105b565b9250508190555080600260008282546109d7919061105b565b925050819055503373ffffffffffffffffffffffffffffffffffffffff16600073ffffffffffffffffffffffffffffffffffffffff167fddf252ad1be2c89b69c2b068fc378daa952ba7f163c4a11628f55a4df523b3ef83604051610a3c9190610df9565b60405180910390a350565b338180610a538361080a565b1015610a94576040517f08c379a0000000000000000000000000000000000000000000000000000000008152600401610a8b90610fd8565b60405180910390fd5b82600360003373ffffffffffffffffffffffffffffffffffffffff1673ffffffffffffffffffffffffffffffffffffffff1681526020019081526020016000206000828254610ae39190611027565b9250508190555082600360008673ffffffffffffffffffffffffffffffffffffffff1673ffffffffffffffffffffffffffffffffffffffff1681526020019081526020016000206000828254610b39919061105b565b925050819055508373ffffffffffffffffffffffffffffffffffffffff163373ffffffffffffffffffffffffffffffffffffffff167fddf252ad1be2c89b69c2b068fc378daa952ba7f163c4a11628f55a4df523b3ef85604051610b9d9190610df9565b60405180910390a350505050565b6000600460008473ffffffffffffffffffffffffffffffffffffffff1673ffffffffffffffffffffffffffffffffffffffff16815260200190815260200160002060008373ffffffffffffffffffffffffffffffffffffffff1673ffffffffffffffffffffffffffffffffffffffff16815260200190815260200160002054905092915050565b60008054906101000a900473ffffffffffffffffffffffffffffffffffffffff1681565b600081519050919050565b600082825260208201905092915050565b60005b83811015610c90578082015181840152602081019050610c75565b83811115610c9f576000848401525b50505050565b6000601f19601f8301169050919050565b6000610cc182610c56565b610ccb8185610c61565b9350610cdb818560208601610c72565b610ce481610ca5565b840191505092915050565b60006020820190508181036000830152610d098184610cb6565b905092915050565b600080fd5b600073ffffffffffffffffffffffffffffffffffffffff82169050919050565b6000610d4182610d16565b9050919050565b610d5181610d36565b8114610d5c57600080fd5b50565b600081359050610d6e81610d48565b92915050565b6000819050919050565b610d8781610d74565b8114610d9257600080fd5b50565b600081359050610da481610d7e565b92915050565b60008060408385031215610dc157610dc0610d11565b5b6000610dcf85828601610d5f565b9250506020610de085828601610d95565b9150509250929050565b610df381610d74565b82525050565b6000602082019050610e0e6000830184610dea565b92915050565b600080600060608486031215610e2d57610e2c610d11565b5b6000610e3b86828701610d5f565b9350506020610e4c86828701610d5f565b9250506040610e5d86828701610d95565b9150509250925092565b600060208284031215610e7d57610e7c610d11565b5b6000610e8b84828501610d95565b91505092915050565b600060208284031215610eaa57610ea9610d11565b5b6000610eb884828501610d5f565b91505092915050565b60008060408385031215610ed857610ed7610d11565b5b6000610ee685828601610d5f565b9250506020610ef785828601610d5f565b9150509250929050565b610f0a81610d36565b82525050565b6000602082019050610f256000830184610f01565b92915050565b7f4e487b7100000000000000000000000000000000000000000000000000000000600052602260045260246000fd5b60006002820490506001821680610f7257607f821691505b60208210811415610f8657610f85610f2b565b5b50919050565b7f4e6f7420656e6f75676820746f6b656e73210000000000000000000000000000600082015250565b6000610fc2601283610c61565b9150610fcd82610f8c565b602082019050919050565b60006020820190508181036000830152610ff181610fb5565b9050919050565b7f4e487b7100000000000000000000000000000000000000000000000000000000600052601160045260246000fd5b600061103282610d74565b915061103d83610d74565b9250828210156110505761104f610ff8565b5b828203905092915050565b600061106682610d74565b915061107183610d74565b9250827fffffffffffffffffffffffffffffffffffffffffffffffffffffffffffffffff038211156110a6576110a5610ff8565b5b828201905092915050565b7f596f7520617265206e6f7420616e206f776e6572210000000000000000000000600082015250565b60006110e7601583610c61565b91506110f2826110b1565b602082019050919050565b60006020820190508181036000830152611116816110da565b905091905056fea2646970667358221220b573fa6b72d389dd79668d11c71223d21b9139ba112eda274e10f2049999cffd64736f6c63430008090033",
  "linkReferences": {},
  "deployedLinkReferences": {}
}