{
	"contracts/CallRewards.sol": {
		"CallRewards": {
			"abi": [
				{
					"inputs": [],
					"stateMutability": "nonpayable",
					"type": "constructor"
				},
				{
					"inputs": [],
					"name": "completedStudyBonus",
					"outputs": [
						{
							"internalType": "uint256",
							"name": "",
							"type": "uint256"
						}
					],
					"stateMutability": "view",
					"type": "function"
				},
				{
					"inputs": [
						{
							"internalType": "address",
							"name": "_user",
							"type": "address"
						}
					],
					"name": "completedStudyReward",
					"outputs": [],
					"stateMutability": "nonpayable",
					"type": "function"
				},
				{
					"inputs": [],
					"name": "firstCollectionBonus",
					"outputs": [
						{
							"internalType": "uint256",
							"name": "",
							"type": "uint256"
						}
					],
					"stateMutability": "view",
					"type": "function"
				},
				{
					"inputs": [
						{
							"internalType": "address",
							"name": "_user",
							"type": "address"
						}
					],
					"name": "firstCollectionReward",
					"outputs": [],
					"stateMutability": "nonpayable",
					"type": "function"
				},
				{
					"inputs": [],
					"name": "invitedFriendBonus",
					"outputs": [
						{
							"internalType": "uint256",
							"name": "",
							"type": "uint256"
						}
					],
					"stateMutability": "view",
					"type": "function"
				},
				{
					"inputs": [
						{
							"internalType": "address",
							"name": "_user",
							"type": "address"
						},
						{
							"internalType": "address",
							"name": "_newUser",
							"type": "address"
						}
					],
					"name": "invitedFriendReward",
					"outputs": [],
					"stateMutability": "nonpayable",
					"type": "function"
				}
			],
			"devdoc": {
				"kind": "dev",
				"methods": {},
				"version": 1
			},
			"evm": {
				"assembly": "    /* \"contracts/CallRewards.sol\":372:2256  contract CallRewards {... */\n  mstore(0x40, 0x80)\n    /* \"contracts/CallRewards.sol\":482:484  10 */\n  0x0a\n    /* \"contracts/CallRewards.sol\":444:484  uint256 public firstCollectionBonus = 10 */\n  0x02\n  sstore\n    /* \"contracts/CallRewards.sol\":526:533  5 ether */\n  0x4563918244f40000\n    /* \"contracts/CallRewards.sol\":490:533  uint256 public invitedFriendBonus = 5 ether */\n  0x03\n  sstore\n    /* \"contracts/CallRewards.sol\":576:583  1 ether */\n  0x0de0b6b3a7640000\n    /* \"contracts/CallRewards.sol\":539:583  uint256 public completedStudyBonus = 1 ether */\n  0x04\n  sstore\n    /* \"contracts/CallRewards.sol\":590:643  constructor() {... */\n  callvalue\n  dup1\n  iszero\n  tag_1\n  jumpi\n  0x00\n  dup1\n  revert\ntag_1:\n  pop\n    /* \"contracts/CallRewards.sol\":626:636  msg.sender */\n  caller\n    /* \"contracts/CallRewards.sol\":614:623  thisOwner */\n  0x00\n  dup1\n    /* \"contracts/CallRewards.sol\":614:636  thisOwner = msg.sender */\n  0x0100\n  exp\n  dup2\n  sload\n  dup2\n  0xffffffffffffffffffffffffffffffffffffffff\n  mul\n  not\n  and\n  swap1\n  dup4\n  0xffffffffffffffffffffffffffffffffffffffff\n  and\n  mul\n  or\n  swap1\n  sstore\n  pop\n    /* \"contracts/CallRewards.sol\":372:2256  contract CallRewards {... */\n  dataSize(sub_0)\n  dup1\n  dataOffset(sub_0)\n  0x00\n  codecopy\n  0x00\n  return\nstop\n\nsub_0: assembly {\n        /* \"contracts/CallRewards.sol\":372:2256  contract CallRewards {... */\n      mstore(0x40, 0x80)\n      callvalue\n      dup1\n      iszero\n      tag_1\n      jumpi\n      0x00\n      dup1\n      revert\n    tag_1:\n      pop\n      jumpi(tag_2, lt(calldatasize, 0x04))\n      shr(0xe0, calldataload(0x00))\n      dup1\n      0x052a76e9\n      eq\n      tag_3\n      jumpi\n      dup1\n      0x095275b2\n      eq\n      tag_4\n      jumpi\n      dup1\n      0x4ffd54e6\n      eq\n      tag_5\n      jumpi\n      dup1\n      0x70d0099b\n      eq\n      tag_6\n      jumpi\n      dup1\n      0x93ea9d5b\n      eq\n      tag_7\n      jumpi\n      dup1\n      0xb0f6392d\n      eq\n      tag_8\n      jumpi\n    tag_2:\n      0x00\n      dup1\n      revert\n        /* \"contracts/CallRewards.sol\":444:484  uint256 public firstCollectionBonus = 10 */\n    tag_3:\n      tag_9\n      tag_10\n      jump\t// in\n    tag_9:\n      mload(0x40)\n      tag_11\n      swap2\n      swap1\n      tag_12\n      jump\t// in\n    tag_11:\n      mload(0x40)\n      dup1\n      swap2\n      sub\n      swap1\n      return\n        /* \"contracts/CallRewards.sol\":1013:1367  function completedStudyReward(address _user) public {... */\n    tag_4:\n      tag_13\n      0x04\n      dup1\n      calldatasize\n      sub\n      dup2\n      add\n      swap1\n      tag_14\n      swap2\n      swap1\n      tag_15\n      jump\t// in\n    tag_14:\n      tag_16\n      jump\t// in\n    tag_13:\n      stop\n        /* \"contracts/CallRewards.sol\":649:1007  function firstCollectionReward(address _user) external {... */\n    tag_5:\n      tag_17\n      0x04\n      dup1\n      calldatasize\n      sub\n      dup2\n      add\n      swap1\n      tag_18\n      swap2\n      swap1\n      tag_15\n      jump\t// in\n    tag_18:\n      tag_19\n      jump\t// in\n    tag_17:\n      stop\n        /* \"contracts/CallRewards.sol\":490:533  uint256 public invitedFriendBonus = 5 ether */\n    tag_6:\n      tag_20\n      tag_21\n      jump\t// in\n    tag_20:\n      mload(0x40)\n      tag_22\n      swap2\n      swap1\n      tag_12\n      jump\t// in\n    tag_22:\n      mload(0x40)\n      dup1\n      swap2\n      sub\n      swap1\n      return\n        /* \"contracts/CallRewards.sol\":539:583  uint256 public completedStudyBonus = 1 ether */\n    tag_7:\n      tag_23\n      tag_24\n      jump\t// in\n    tag_23:\n      mload(0x40)\n      tag_25\n      swap2\n      swap1\n      tag_12\n      jump\t// in\n    tag_25:\n      mload(0x40)\n      dup1\n      swap2\n      sub\n      swap1\n      return\n        /* \"contracts/CallRewards.sol\":1373:1523  function invitedFriendReward(address _user, address _newUser) public {... */\n    tag_8:\n      tag_26\n      0x04\n      dup1\n      calldatasize\n      sub\n      dup2\n      add\n      swap1\n      tag_27\n      swap2\n      swap1\n      tag_28\n      jump\t// in\n    tag_27:\n      tag_29\n      jump\t// in\n    tag_26:\n      stop\n        /* \"contracts/CallRewards.sol\":444:484  uint256 public firstCollectionBonus = 10 */\n    tag_10:\n      sload(0x02)\n      dup2\n      jump\t// out\n        /* \"contracts/CallRewards.sol\":1013:1367  function completedStudyReward(address _user) public {... */\n    tag_16:\n        /* \"contracts/CallRewards.sol\":1076:1088  bool success */\n      0x00\n        /* \"contracts/CallRewards.sol\":1094:1102  TinToken */\n      0x01\n      0x00\n      swap1\n      sload\n      swap1\n      0x0100\n      exp\n      swap1\n      div\n      0xffffffffffffffffffffffffffffffffffffffff\n      and\n        /* \"contracts/CallRewards.sol\":1094:1107  TinToken.call */\n      0xffffffffffffffffffffffffffffffffffffffff\n      and\n        /* \"contracts/CallRewards.sol\":1219:1228  thisOwner */\n      0x00\n      dup1\n      sload\n      swap1\n      0x0100\n      exp\n      swap1\n      div\n      0xffffffffffffffffffffffffffffffffffffffff\n      and\n        /* \"contracts/CallRewards.sol\":1246:1251  _user */\n      dup4\n        /* \"contracts/CallRewards.sol\":1269:1288  completedStudyBonus */\n      sload(0x04)\n        /* \"contracts/CallRewards.sol\":1121:1302  abi.encodeWithSignature(... */\n      add(0x24, mload(0x40))\n      tag_31\n      swap4\n      swap3\n      swap2\n      swap1\n      tag_32\n      jump\t// in\n    tag_31:\n      mload(0x40)\n      0x20\n      dup2\n      dup4\n      sub\n      sub\n      dup2\n      mstore\n      swap1\n      0x40\n      mstore\n      and(not(0xffffffffffffffffffffffffffffffffffffffffffffffffffffffff), 0x23b872dd00000000000000000000000000000000000000000000000000000000)\n      0x20\n      dup3\n      add\n      dup1\n      mload\n      0xffffffffffffffffffffffffffffffffffffffffffffffffffffffff\n      dup4\n      dup2\n      dup4\n      and\n      or\n      dup4\n      mstore\n      pop\n      pop\n      pop\n      pop\n        /* \"contracts/CallRewards.sol\":1094:1312  TinToken.call(... */\n      mload(0x40)\n      tag_33\n      swap2\n      swap1\n      tag_34\n      jump\t// in\n    tag_33:\n      0x00\n      mload(0x40)\n      dup1\n      dup4\n      sub\n      dup2\n      0x00\n      dup7\n      gas\n      call\n      swap2\n      pop\n      pop\n      returndatasize\n      dup1\n      0x00\n      dup2\n      eq\n      tag_37\n      jumpi\n      mload(0x40)\n      swap2\n      pop\n      and(add(returndatasize, 0x3f), not(0x1f))\n      dup3\n      add\n      0x40\n      mstore\n      returndatasize\n      dup3\n      mstore\n      returndatasize\n      0x00\n      0x20\n      dup5\n      add\n      returndatacopy\n      jump(tag_36)\n    tag_37:\n      0x60\n      swap2\n      pop\n    tag_36:\n      pop\n        /* \"contracts/CallRewards.sol\":1075:1312  (bool success, ) = TinToken.call(... */\n      pop\n      swap1\n      pop\n        /* \"contracts/CallRewards.sol\":1330:1337  success */\n      dup1\n        /* \"contracts/CallRewards.sol\":1322:1360  require(success, \"Transaction failed\") */\n      tag_38\n      jumpi\n      mload(0x40)\n      0x08c379a000000000000000000000000000000000000000000000000000000000\n      dup2\n      mstore\n      0x04\n      add\n      tag_39\n      swap1\n      tag_40\n      jump\t// in\n    tag_39:\n      mload(0x40)\n      dup1\n      swap2\n      sub\n      swap1\n      revert\n    tag_38:\n        /* \"contracts/CallRewards.sol\":1065:1367  {... */\n      pop\n        /* \"contracts/CallRewards.sol\":1013:1367  function completedStudyReward(address _user) public {... */\n      pop\n      jump\t// out\n        /* \"contracts/CallRewards.sol\":649:1007  function firstCollectionReward(address _user) external {... */\n    tag_19:\n        /* \"contracts/CallRewards.sol\":715:727  bool success */\n      0x00\n        /* \"contracts/CallRewards.sol\":733:741  TinToken */\n      0x01\n      0x00\n      swap1\n      sload\n      swap1\n      0x0100\n      exp\n      swap1\n      div\n      0xffffffffffffffffffffffffffffffffffffffff\n      and\n        /* \"contracts/CallRewards.sol\":733:746  TinToken.call */\n      0xffffffffffffffffffffffffffffffffffffffff\n      and\n        /* \"contracts/CallRewards.sol\":858:867  thisOwner */\n      0x00\n      dup1\n      sload\n      swap1\n      0x0100\n      exp\n      swap1\n      div\n      0xffffffffffffffffffffffffffffffffffffffff\n      and\n        /* \"contracts/CallRewards.sol\":885:890  _user */\n      dup4\n        /* \"contracts/CallRewards.sol\":908:928  firstCollectionBonus */\n      sload(0x02)\n        /* \"contracts/CallRewards.sol\":760:942  abi.encodeWithSignature(... */\n      add(0x24, mload(0x40))\n      tag_42\n      swap4\n      swap3\n      swap2\n      swap1\n      tag_32\n      jump\t// in\n    tag_42:\n      mload(0x40)\n      0x20\n      dup2\n      dup4\n      sub\n      sub\n      dup2\n      mstore\n      swap1\n      0x40\n      mstore\n      and(not(0xffffffffffffffffffffffffffffffffffffffffffffffffffffffff), 0x23b872dd00000000000000000000000000000000000000000000000000000000)\n      0x20\n      dup3\n      add\n      dup1\n      mload\n      0xffffffffffffffffffffffffffffffffffffffffffffffffffffffff\n      dup4\n      dup2\n      dup4\n      and\n      or\n      dup4\n      mstore\n      pop\n      pop\n      pop\n      pop\n        /* \"contracts/CallRewards.sol\":733:952  TinToken.call(... */\n      mload(0x40)\n      tag_43\n      swap2\n      swap1\n      tag_34\n      jump\t// in\n    tag_43:\n      0x00\n      mload(0x40)\n      dup1\n      dup4\n      sub\n      dup2\n      0x00\n      dup7\n      gas\n      call\n      swap2\n      pop\n      pop\n      returndatasize\n      dup1\n      0x00\n      dup2\n      eq\n      tag_46\n      jumpi\n      mload(0x40)\n      swap2\n      pop\n      and(add(returndatasize, 0x3f), not(0x1f))\n      dup3\n      add\n      0x40\n      mstore\n      returndatasize\n      dup3\n      mstore\n      returndatasize\n      0x00\n      0x20\n      dup5\n      add\n      returndatacopy\n      jump(tag_45)\n    tag_46:\n      0x60\n      swap2\n      pop\n    tag_45:\n      pop\n        /* \"contracts/CallRewards.sol\":714:952  (bool success, ) = TinToken.call(... */\n      pop\n      swap1\n      pop\n        /* \"contracts/CallRewards.sol\":970:977  success */\n      dup1\n        /* \"contracts/CallRewards.sol\":962:1000  require(success, \"Transaction failed\") */\n      tag_47\n      jumpi\n      mload(0x40)\n      0x08c379a000000000000000000000000000000000000000000000000000000000\n      dup2\n      mstore\n      0x04\n      add\n      tag_48\n      swap1\n      tag_40\n      jump\t// in\n    tag_48:\n      mload(0x40)\n      dup1\n      swap2\n      sub\n      swap1\n      revert\n    tag_47:\n        /* \"contracts/CallRewards.sol\":704:1007  {... */\n      pop\n        /* \"contracts/CallRewards.sol\":649:1007  function firstCollectionReward(address _user) external {... */\n      pop\n      jump\t// out\n        /* \"contracts/CallRewards.sol\":490:533  uint256 public invitedFriendBonus = 5 ether */\n    tag_21:\n      sload(0x03)\n      dup2\n      jump\t// out\n        /* \"contracts/CallRewards.sol\":539:583  uint256 public completedStudyBonus = 1 ether */\n    tag_24:\n      sload(0x04)\n      dup2\n      jump\t// out\n        /* \"contracts/CallRewards.sol\":1373:1523  function invitedFriendReward(address _user, address _newUser) public {... */\n    tag_29:\n        /* \"contracts/CallRewards.sol\":1452:1476  invitedFriendUser(_user) */\n      tag_50\n        /* \"contracts/CallRewards.sol\":1470:1475  _user */\n      dup3\n        /* \"contracts/CallRewards.sol\":1452:1469  invitedFriendUser */\n      tag_51\n        /* \"contracts/CallRewards.sol\":1452:1476  invitedFriendUser(_user) */\n      jump\t// in\n    tag_50:\n        /* \"contracts/CallRewards.sol\":1486:1516  invitedFriendNewUser(_newUser) */\n      tag_52\n        /* \"contracts/CallRewards.sol\":1507:1515  _newUser */\n      dup2\n        /* \"contracts/CallRewards.sol\":1486:1506  invitedFriendNewUser */\n      tag_53\n        /* \"contracts/CallRewards.sol\":1486:1516  invitedFriendNewUser(_newUser) */\n      jump\t// in\n    tag_52:\n        /* \"contracts/CallRewards.sol\":1373:1523  function invitedFriendReward(address _user, address _newUser) public {... */\n      pop\n      pop\n      jump\t// out\n        /* \"contracts/CallRewards.sol\":1529:1881  function invitedFriendUser(address _user) internal {... */\n    tag_51:\n        /* \"contracts/CallRewards.sol\":1591:1603  bool success */\n      0x00\n        /* \"contracts/CallRewards.sol\":1609:1617  TinToken */\n      0x01\n      0x00\n      swap1\n      sload\n      swap1\n      0x0100\n      exp\n      swap1\n      div\n      0xffffffffffffffffffffffffffffffffffffffff\n      and\n        /* \"contracts/CallRewards.sol\":1609:1622  TinToken.call */\n      0xffffffffffffffffffffffffffffffffffffffff\n      and\n        /* \"contracts/CallRewards.sol\":1734:1743  thisOwner */\n      0x00\n      dup1\n      sload\n      swap1\n      0x0100\n      exp\n      swap1\n      div\n      0xffffffffffffffffffffffffffffffffffffffff\n      and\n        /* \"contracts/CallRewards.sol\":1761:1766  _user */\n      dup4\n        /* \"contracts/CallRewards.sol\":1784:1802  invitedFriendBonus */\n      sload(0x03)\n        /* \"contracts/CallRewards.sol\":1636:1816  abi.encodeWithSignature(... */\n      add(0x24, mload(0x40))\n      tag_55\n      swap4\n      swap3\n      swap2\n      swap1\n      tag_32\n      jump\t// in\n    tag_55:\n      mload(0x40)\n      0x20\n      dup2\n      dup4\n      sub\n      sub\n      dup2\n      mstore\n      swap1\n      0x40\n      mstore\n      and(not(0xffffffffffffffffffffffffffffffffffffffffffffffffffffffff), 0x23b872dd00000000000000000000000000000000000000000000000000000000)\n      0x20\n      dup3\n      add\n      dup1\n      mload\n      0xffffffffffffffffffffffffffffffffffffffffffffffffffffffff\n      dup4\n      dup2\n      dup4\n      and\n      or\n      dup4\n      mstore\n      pop\n      pop\n      pop\n      pop\n        /* \"contracts/CallRewards.sol\":1609:1826  TinToken.call(... */\n      mload(0x40)\n      tag_56\n      swap2\n      swap1\n      tag_34\n      jump\t// in\n    tag_56:\n      0x00\n      mload(0x40)\n      dup1\n      dup4\n      sub\n      dup2\n      0x00\n      dup7\n      gas\n      call\n      swap2\n      pop\n      pop\n      returndatasize\n      dup1\n      0x00\n      dup2\n      eq\n      tag_59\n      jumpi\n      mload(0x40)\n      swap2\n      pop\n      and(add(returndatasize, 0x3f), not(0x1f))\n      dup3\n      add\n      0x40\n      mstore\n      returndatasize\n      dup3\n      mstore\n      returndatasize\n      0x00\n      0x20\n      dup5\n      add\n      returndatacopy\n      jump(tag_58)\n    tag_59:\n      0x60\n      swap2\n      pop\n    tag_58:\n      pop\n        /* \"contracts/CallRewards.sol\":1590:1826  (bool success, ) = TinToken.call(... */\n      pop\n      swap1\n      pop\n        /* \"contracts/CallRewards.sol\":1844:1851  success */\n      dup1\n        /* \"contracts/CallRewards.sol\":1836:1874  require(success, \"Transaction failed\") */\n      tag_60\n      jumpi\n      mload(0x40)\n      0x08c379a000000000000000000000000000000000000000000000000000000000\n      dup2\n      mstore\n      0x04\n      add\n      tag_61\n      swap1\n      tag_40\n      jump\t// in\n    tag_61:\n      mload(0x40)\n      dup1\n      swap2\n      sub\n      swap1\n      revert\n    tag_60:\n        /* \"contracts/CallRewards.sol\":1580:1881  {... */\n      pop\n        /* \"contracts/CallRewards.sol\":1529:1881  function invitedFriendUser(address _user) internal {... */\n      pop\n      jump\t// out\n        /* \"contracts/CallRewards.sol\":1887:2254  function invitedFriendNewUser(address _newUser) internal {... */\n    tag_53:\n        /* \"contracts/CallRewards.sol\":1955:1970  bool successNew */\n      0x00\n        /* \"contracts/CallRewards.sol\":1976:1984  TinToken */\n      0x01\n      0x00\n      swap1\n      sload\n      swap1\n      0x0100\n      exp\n      swap1\n      div\n      0xffffffffffffffffffffffffffffffffffffffff\n      and\n        /* \"contracts/CallRewards.sol\":1976:1989  TinToken.call */\n      0xffffffffffffffffffffffffffffffffffffffff\n      and\n        /* \"contracts/CallRewards.sol\":2101:2110  thisOwner */\n      0x00\n      dup1\n      sload\n      swap1\n      0x0100\n      exp\n      swap1\n      div\n      0xffffffffffffffffffffffffffffffffffffffff\n      and\n        /* \"contracts/CallRewards.sol\":2128:2136  _newUser */\n      dup4\n        /* \"contracts/CallRewards.sol\":2154:2172  invitedFriendBonus */\n      sload(0x03)\n        /* \"contracts/CallRewards.sol\":2003:2186  abi.encodeWithSignature(... */\n      add(0x24, mload(0x40))\n      tag_63\n      swap4\n      swap3\n      swap2\n      swap1\n      tag_32\n      jump\t// in\n    tag_63:\n      mload(0x40)\n      0x20\n      dup2\n      dup4\n      sub\n      sub\n      dup2\n      mstore\n      swap1\n      0x40\n      mstore\n      and(not(0xffffffffffffffffffffffffffffffffffffffffffffffffffffffff), 0x23b872dd00000000000000000000000000000000000000000000000000000000)\n      0x20\n      dup3\n      add\n      dup1\n      mload\n      0xffffffffffffffffffffffffffffffffffffffffffffffffffffffff\n      dup4\n      dup2\n      dup4\n      and\n      or\n      dup4\n      mstore\n      pop\n      pop\n      pop\n      pop\n        /* \"contracts/CallRewards.sol\":1976:2196  TinToken.call(... */\n      mload(0x40)\n      tag_64\n      swap2\n      swap1\n      tag_34\n      jump\t// in\n    tag_64:\n      0x00\n      mload(0x40)\n      dup1\n      dup4\n      sub\n      dup2\n      0x00\n      dup7\n      gas\n      call\n      swap2\n      pop\n      pop\n      returndatasize\n      dup1\n      0x00\n      dup2\n      eq\n      tag_67\n      jumpi\n      mload(0x40)\n      swap2\n      pop\n      and(add(returndatasize, 0x3f), not(0x1f))\n      dup3\n      add\n      0x40\n      mstore\n      returndatasize\n      dup3\n      mstore\n      returndatasize\n      0x00\n      0x20\n      dup5\n      add\n      returndatacopy\n      jump(tag_66)\n    tag_67:\n      0x60\n      swap2\n      pop\n    tag_66:\n      pop\n        /* \"contracts/CallRewards.sol\":1954:2196  (bool successNew, ) = TinToken.call(... */\n      pop\n      swap1\n      pop\n        /* \"contracts/CallRewards.sol\":2214:2224  successNew */\n      dup1\n        /* \"contracts/CallRewards.sol\":2206:2247  require(successNew, \"Transaction failed\") */\n      tag_68\n      jumpi\n      mload(0x40)\n      0x08c379a000000000000000000000000000000000000000000000000000000000\n      dup2\n      mstore\n      0x04\n      add\n      tag_69\n      swap1\n      tag_40\n      jump\t// in\n    tag_69:\n      mload(0x40)\n      dup1\n      swap2\n      sub\n      swap1\n      revert\n    tag_68:\n        /* \"contracts/CallRewards.sol\":1944:2254  {... */\n      pop\n        /* \"contracts/CallRewards.sol\":1887:2254  function invitedFriendNewUser(address _newUser) internal {... */\n      pop\n      jump\t// out\n        /* \"#utility.yul\":7:146   */\n    tag_71:\n        /* \"#utility.yul\":53:58   */\n      0x00\n        /* \"#utility.yul\":91:97   */\n      dup2\n        /* \"#utility.yul\":78:98   */\n      calldataload\n        /* \"#utility.yul\":69:98   */\n      swap1\n      pop\n        /* \"#utility.yul\":107:140   */\n      tag_73\n        /* \"#utility.yul\":134:139   */\n      dup2\n        /* \"#utility.yul\":107:140   */\n      tag_74\n      jump\t// in\n    tag_73:\n        /* \"#utility.yul\":7:146   */\n      swap3\n      swap2\n      pop\n      pop\n      jump\t// out\n        /* \"#utility.yul\":152:481   */\n    tag_15:\n        /* \"#utility.yul\":211:217   */\n      0x00\n        /* \"#utility.yul\":260:262   */\n      0x20\n        /* \"#utility.yul\":248:257   */\n      dup3\n        /* \"#utility.yul\":239:246   */\n      dup5\n        /* \"#utility.yul\":235:258   */\n      sub\n        /* \"#utility.yul\":231:263   */\n      slt\n        /* \"#utility.yul\":228:347   */\n      iszero\n      tag_76\n      jumpi\n        /* \"#utility.yul\":266:345   */\n      tag_77\n      tag_78\n      jump\t// in\n    tag_77:\n        /* \"#utility.yul\":228:347   */\n    tag_76:\n        /* \"#utility.yul\":386:387   */\n      0x00\n        /* \"#utility.yul\":411:464   */\n      tag_79\n        /* \"#utility.yul\":456:463   */\n      dup5\n        /* \"#utility.yul\":447:453   */\n      dup3\n        /* \"#utility.yul\":436:445   */\n      dup6\n        /* \"#utility.yul\":432:454   */\n      add\n        /* \"#utility.yul\":411:464   */\n      tag_71\n      jump\t// in\n    tag_79:\n        /* \"#utility.yul\":401:464   */\n      swap2\n      pop\n        /* \"#utility.yul\":357:474   */\n      pop\n        /* \"#utility.yul\":152:481   */\n      swap3\n      swap2\n      pop\n      pop\n      jump\t// out\n        /* \"#utility.yul\":487:961   */\n    tag_28:\n        /* \"#utility.yul\":555:561   */\n      0x00\n        /* \"#utility.yul\":563:569   */\n      dup1\n        /* \"#utility.yul\":612:614   */\n      0x40\n        /* \"#utility.yul\":600:609   */\n      dup4\n        /* \"#utility.yul\":591:598   */\n      dup6\n        /* \"#utility.yul\":587:610   */\n      sub\n        /* \"#utility.yul\":583:615   */\n      slt\n        /* \"#utility.yul\":580:699   */\n      iszero\n      tag_81\n      jumpi\n        /* \"#utility.yul\":618:697   */\n      tag_82\n      tag_78\n      jump\t// in\n    tag_82:\n        /* \"#utility.yul\":580:699   */\n    tag_81:\n        /* \"#utility.yul\":738:739   */\n      0x00\n        /* \"#utility.yul\":763:816   */\n      tag_83\n        /* \"#utility.yul\":808:815   */\n      dup6\n        /* \"#utility.yul\":799:805   */\n      dup3\n        /* \"#utility.yul\":788:797   */\n      dup7\n        /* \"#utility.yul\":784:806   */\n      add\n        /* \"#utility.yul\":763:816   */\n      tag_71\n      jump\t// in\n    tag_83:\n        /* \"#utility.yul\":753:816   */\n      swap3\n      pop\n        /* \"#utility.yul\":709:826   */\n      pop\n        /* \"#utility.yul\":865:867   */\n      0x20\n        /* \"#utility.yul\":891:944   */\n      tag_84\n        /* \"#utility.yul\":936:943   */\n      dup6\n        /* \"#utility.yul\":927:933   */\n      dup3\n        /* \"#utility.yul\":916:925   */\n      dup7\n        /* \"#utility.yul\":912:934   */\n      add\n        /* \"#utility.yul\":891:944   */\n      tag_71\n      jump\t// in\n    tag_84:\n        /* \"#utility.yul\":881:944   */\n      swap2\n      pop\n        /* \"#utility.yul\":836:954   */\n      pop\n        /* \"#utility.yul\":487:961   */\n      swap3\n      pop\n      swap3\n      swap1\n      pop\n      jump\t// out\n        /* \"#utility.yul\":967:1085   */\n    tag_85:\n        /* \"#utility.yul\":1054:1078   */\n      tag_87\n        /* \"#utility.yul\":1072:1077   */\n      dup2\n        /* \"#utility.yul\":1054:1078   */\n      tag_88\n      jump\t// in\n    tag_87:\n        /* \"#utility.yul\":1049:1052   */\n      dup3\n        /* \"#utility.yul\":1042:1079   */\n      mstore\n        /* \"#utility.yul\":967:1085   */\n      pop\n      pop\n      jump\t// out\n        /* \"#utility.yul\":1091:1464   */\n    tag_89:\n        /* \"#utility.yul\":1195:1198   */\n      0x00\n        /* \"#utility.yul\":1223:1261   */\n      tag_91\n        /* \"#utility.yul\":1255:1260   */\n      dup3\n        /* \"#utility.yul\":1223:1261   */\n      tag_92\n      jump\t// in\n    tag_91:\n        /* \"#utility.yul\":1277:1365   */\n      tag_93\n        /* \"#utility.yul\":1358:1364   */\n      dup2\n        /* \"#utility.yul\":1353:1356   */\n      dup6\n        /* \"#utility.yul\":1277:1365   */\n      tag_94\n      jump\t// in\n    tag_93:\n        /* \"#utility.yul\":1270:1365   */\n      swap4\n      pop\n        /* \"#utility.yul\":1374:1426   */\n      tag_95\n        /* \"#utility.yul\":1419:1425   */\n      dup2\n        /* \"#utility.yul\":1414:1417   */\n      dup6\n        /* \"#utility.yul\":1407:1411   */\n      0x20\n        /* \"#utility.yul\":1400:1405   */\n      dup7\n        /* \"#utility.yul\":1396:1412   */\n      add\n        /* \"#utility.yul\":1374:1426   */\n      tag_96\n      jump\t// in\n    tag_95:\n        /* \"#utility.yul\":1451:1457   */\n      dup1\n        /* \"#utility.yul\":1446:1449   */\n      dup5\n        /* \"#utility.yul\":1442:1458   */\n      add\n        /* \"#utility.yul\":1435:1458   */\n      swap2\n      pop\n        /* \"#utility.yul\":1199:1464   */\n      pop\n        /* \"#utility.yul\":1091:1464   */\n      swap3\n      swap2\n      pop\n      pop\n      jump\t// out\n        /* \"#utility.yul\":1470:1836   */\n    tag_97:\n        /* \"#utility.yul\":1612:1615   */\n      0x00\n        /* \"#utility.yul\":1633:1700   */\n      tag_99\n        /* \"#utility.yul\":1697:1699   */\n      0x12\n        /* \"#utility.yul\":1692:1695   */\n      dup4\n        /* \"#utility.yul\":1633:1700   */\n      tag_100\n      jump\t// in\n    tag_99:\n        /* \"#utility.yul\":1626:1700   */\n      swap2\n      pop\n        /* \"#utility.yul\":1709:1802   */\n      tag_101\n        /* \"#utility.yul\":1798:1801   */\n      dup3\n        /* \"#utility.yul\":1709:1802   */\n      tag_102\n      jump\t// in\n    tag_101:\n        /* \"#utility.yul\":1827:1829   */\n      0x20\n        /* \"#utility.yul\":1822:1825   */\n      dup3\n        /* \"#utility.yul\":1818:1830   */\n      add\n        /* \"#utility.yul\":1811:1830   */\n      swap1\n      pop\n        /* \"#utility.yul\":1470:1836   */\n      swap2\n      swap1\n      pop\n      jump\t// out\n        /* \"#utility.yul\":1842:1960   */\n    tag_103:\n        /* \"#utility.yul\":1929:1953   */\n      tag_105\n        /* \"#utility.yul\":1947:1952   */\n      dup2\n        /* \"#utility.yul\":1929:1953   */\n      tag_106\n      jump\t// in\n    tag_105:\n        /* \"#utility.yul\":1924:1927   */\n      dup3\n        /* \"#utility.yul\":1917:1954   */\n      mstore\n        /* \"#utility.yul\":1842:1960   */\n      pop\n      pop\n      jump\t// out\n        /* \"#utility.yul\":1966:2237   */\n    tag_34:\n        /* \"#utility.yul\":2096:2099   */\n      0x00\n        /* \"#utility.yul\":2118:2211   */\n      tag_108\n        /* \"#utility.yul\":2207:2210   */\n      dup3\n        /* \"#utility.yul\":2198:2204   */\n      dup5\n        /* \"#utility.yul\":2118:2211   */\n      tag_89\n      jump\t// in\n    tag_108:\n        /* \"#utility.yul\":2111:2211   */\n      swap2\n      pop\n        /* \"#utility.yul\":2228:2231   */\n      dup2\n        /* \"#utility.yul\":2221:2231   */\n      swap1\n      pop\n        /* \"#utility.yul\":1966:2237   */\n      swap3\n      swap2\n      pop\n      pop\n      jump\t// out\n        /* \"#utility.yul\":2243:2685   */\n    tag_32:\n        /* \"#utility.yul\":2392:2396   */\n      0x00\n        /* \"#utility.yul\":2430:2432   */\n      0x60\n        /* \"#utility.yul\":2419:2428   */\n      dup3\n        /* \"#utility.yul\":2415:2433   */\n      add\n        /* \"#utility.yul\":2407:2433   */\n      swap1\n      pop\n        /* \"#utility.yul\":2443:2514   */\n      tag_110\n        /* \"#utility.yul\":2511:2512   */\n      0x00\n        /* \"#utility.yul\":2500:2509   */\n      dup4\n        /* \"#utility.yul\":2496:2513   */\n      add\n        /* \"#utility.yul\":2487:2493   */\n      dup7\n        /* \"#utility.yul\":2443:2514   */\n      tag_85\n      jump\t// in\n    tag_110:\n        /* \"#utility.yul\":2524:2596   */\n      tag_111\n        /* \"#utility.yul\":2592:2594   */\n      0x20\n        /* \"#utility.yul\":2581:2590   */\n      dup4\n        /* \"#utility.yul\":2577:2595   */\n      add\n        /* \"#utility.yul\":2568:2574   */\n      dup6\n        /* \"#utility.yul\":2524:2596   */\n      tag_85\n      jump\t// in\n    tag_111:\n        /* \"#utility.yul\":2606:2678   */\n      tag_112\n        /* \"#utility.yul\":2674:2676   */\n      0x40\n        /* \"#utility.yul\":2663:2672   */\n      dup4\n        /* \"#utility.yul\":2659:2677   */\n      add\n        /* \"#utility.yul\":2650:2656   */\n      dup5\n        /* \"#utility.yul\":2606:2678   */\n      tag_103\n      jump\t// in\n    tag_112:\n        /* \"#utility.yul\":2243:2685   */\n      swap5\n      swap4\n      pop\n      pop\n      pop\n      pop\n      jump\t// out\n        /* \"#utility.yul\":2691:3110   */\n    tag_40:\n        /* \"#utility.yul\":2857:2861   */\n      0x00\n        /* \"#utility.yul\":2895:2897   */\n      0x20\n        /* \"#utility.yul\":2884:2893   */\n      dup3\n        /* \"#utility.yul\":2880:2898   */\n      add\n        /* \"#utility.yul\":2872:2898   */\n      swap1\n      pop\n        /* \"#utility.yul\":2944:2953   */\n      dup2\n        /* \"#utility.yul\":2938:2942   */\n      dup2\n        /* \"#utility.yul\":2934:2954   */\n      sub\n        /* \"#utility.yul\":2930:2931   */\n      0x00\n        /* \"#utility.yul\":2919:2928   */\n      dup4\n        /* \"#utility.yul\":2915:2932   */\n      add\n        /* \"#utility.yul\":2908:2955   */\n      mstore\n        /* \"#utility.yul\":2972:3103   */\n      tag_114\n        /* \"#utility.yul\":3098:3102   */\n      dup2\n        /* \"#utility.yul\":2972:3103   */\n      tag_97\n      jump\t// in\n    tag_114:\n        /* \"#utility.yul\":2964:3103   */\n      swap1\n      pop\n        /* \"#utility.yul\":2691:3110   */\n      swap2\n      swap1\n      pop\n      jump\t// out\n        /* \"#utility.yul\":3116:3338   */\n    tag_12:\n        /* \"#utility.yul\":3209:3213   */\n      0x00\n        /* \"#utility.yul\":3247:3249   */\n      0x20\n        /* \"#utility.yul\":3236:3245   */\n      dup3\n        /* \"#utility.yul\":3232:3250   */\n      add\n        /* \"#utility.yul\":3224:3250   */\n      swap1\n      pop\n        /* \"#utility.yul\":3260:3331   */\n      tag_116\n        /* \"#utility.yul\":3328:3329   */\n      0x00\n        /* \"#utility.yul\":3317:3326   */\n      dup4\n        /* \"#utility.yul\":3313:3330   */\n      add\n        /* \"#utility.yul\":3304:3310   */\n      dup5\n        /* \"#utility.yul\":3260:3331   */\n      tag_103\n      jump\t// in\n    tag_116:\n        /* \"#utility.yul\":3116:3338   */\n      swap3\n      swap2\n      pop\n      pop\n      jump\t// out\n        /* \"#utility.yul\":3425:3523   */\n    tag_92:\n        /* \"#utility.yul\":3476:3482   */\n      0x00\n        /* \"#utility.yul\":3510:3515   */\n      dup2\n        /* \"#utility.yul\":3504:3516   */\n      mload\n        /* \"#utility.yul\":3494:3516   */\n      swap1\n      pop\n        /* \"#utility.yul\":3425:3523   */\n      swap2\n      swap1\n      pop\n      jump\t// out\n        /* \"#utility.yul\":3529:3676   */\n    tag_94:\n        /* \"#utility.yul\":3630:3641   */\n      0x00\n        /* \"#utility.yul\":3667:3670   */\n      dup2\n        /* \"#utility.yul\":3652:3670   */\n      swap1\n      pop\n        /* \"#utility.yul\":3529:3676   */\n      swap3\n      swap2\n      pop\n      pop\n      jump\t// out\n        /* \"#utility.yul\":3682:3851   */\n    tag_100:\n        /* \"#utility.yul\":3766:3777   */\n      0x00\n        /* \"#utility.yul\":3800:3806   */\n      dup3\n        /* \"#utility.yul\":3795:3798   */\n      dup3\n        /* \"#utility.yul\":3788:3807   */\n      mstore\n        /* \"#utility.yul\":3840:3844   */\n      0x20\n        /* \"#utility.yul\":3835:3838   */\n      dup3\n        /* \"#utility.yul\":3831:3845   */\n      add\n        /* \"#utility.yul\":3816:3845   */\n      swap1\n      pop\n        /* \"#utility.yul\":3682:3851   */\n      swap3\n      swap2\n      pop\n      pop\n      jump\t// out\n        /* \"#utility.yul\":3857:3953   */\n    tag_88:\n        /* \"#utility.yul\":3894:3901   */\n      0x00\n        /* \"#utility.yul\":3923:3947   */\n      tag_123\n        /* \"#utility.yul\":3941:3946   */\n      dup3\n        /* \"#utility.yul\":3923:3947   */\n      tag_124\n      jump\t// in\n    tag_123:\n        /* \"#utility.yul\":3912:3947   */\n      swap1\n      pop\n        /* \"#utility.yul\":3857:3953   */\n      swap2\n      swap1\n      pop\n      jump\t// out\n        /* \"#utility.yul\":3959:4085   */\n    tag_124:\n        /* \"#utility.yul\":3996:4003   */\n      0x00\n        /* \"#utility.yul\":4036:4078   */\n      0xffffffffffffffffffffffffffffffffffffffff\n        /* \"#utility.yul\":4029:4034   */\n      dup3\n        /* \"#utility.yul\":4025:4079   */\n      and\n        /* \"#utility.yul\":4014:4079   */\n      swap1\n      pop\n        /* \"#utility.yul\":3959:4085   */\n      swap2\n      swap1\n      pop\n      jump\t// out\n        /* \"#utility.yul\":4091:4168   */\n    tag_106:\n        /* \"#utility.yul\":4128:4135   */\n      0x00\n        /* \"#utility.yul\":4157:4162   */\n      dup2\n        /* \"#utility.yul\":4146:4162   */\n      swap1\n      pop\n        /* \"#utility.yul\":4091:4168   */\n      swap2\n      swap1\n      pop\n      jump\t// out\n        /* \"#utility.yul\":4174:4481   */\n    tag_96:\n        /* \"#utility.yul\":4242:4243   */\n      0x00\n        /* \"#utility.yul\":4252:4365   */\n    tag_128:\n        /* \"#utility.yul\":4266:4272   */\n      dup4\n        /* \"#utility.yul\":4263:4264   */\n      dup2\n        /* \"#utility.yul\":4260:4273   */\n      lt\n        /* \"#utility.yul\":4252:4365   */\n      iszero\n      tag_130\n      jumpi\n        /* \"#utility.yul\":4351:4352   */\n      dup1\n        /* \"#utility.yul\":4346:4349   */\n      dup3\n        /* \"#utility.yul\":4342:4353   */\n      add\n        /* \"#utility.yul\":4336:4354   */\n      mload\n        /* \"#utility.yul\":4332:4333   */\n      dup2\n        /* \"#utility.yul\":4327:4330   */\n      dup5\n        /* \"#utility.yul\":4323:4334   */\n      add\n        /* \"#utility.yul\":4316:4355   */\n      mstore\n        /* \"#utility.yul\":4288:4290   */\n      0x20\n        /* \"#utility.yul\":4285:4286   */\n      dup2\n        /* \"#utility.yul\":4281:4291   */\n      add\n        /* \"#utility.yul\":4276:4291   */\n      swap1\n      pop\n        /* \"#utility.yul\":4252:4365   */\n      jump(tag_128)\n    tag_130:\n        /* \"#utility.yul\":4383:4389   */\n      dup4\n        /* \"#utility.yul\":4380:4381   */\n      dup2\n        /* \"#utility.yul\":4377:4390   */\n      gt\n        /* \"#utility.yul\":4374:4475   */\n      iszero\n      tag_131\n      jumpi\n        /* \"#utility.yul\":4463:4464   */\n      0x00\n        /* \"#utility.yul\":4454:4460   */\n      dup5\n        /* \"#utility.yul\":4449:4452   */\n      dup5\n        /* \"#utility.yul\":4445:4461   */\n      add\n        /* \"#utility.yul\":4438:4465   */\n      mstore\n        /* \"#utility.yul\":4374:4475   */\n    tag_131:\n        /* \"#utility.yul\":4223:4481   */\n      pop\n        /* \"#utility.yul\":4174:4481   */\n      pop\n      pop\n      pop\n      jump\t// out\n        /* \"#utility.yul\":4610:4727   */\n    tag_78:\n        /* \"#utility.yul\":4719:4720   */\n      0x00\n        /* \"#utility.yul\":4716:4717   */\n      dup1\n        /* \"#utility.yul\":4709:4721   */\n      revert\n        /* \"#utility.yul\":4733:4901   */\n    tag_102:\n        /* \"#utility.yul\":4873:4893   */\n      0x5472616e73616374696f6e206661696c65640000000000000000000000000000\n        /* \"#utility.yul\":4869:4870   */\n      0x00\n        /* \"#utility.yul\":4861:4867   */\n      dup3\n        /* \"#utility.yul\":4857:4871   */\n      add\n        /* \"#utility.yul\":4850:4894   */\n      mstore\n        /* \"#utility.yul\":4733:4901   */\n      pop\n      jump\t// out\n        /* \"#utility.yul\":4907:5029   */\n    tag_74:\n        /* \"#utility.yul\":4980:5004   */\n      tag_137\n        /* \"#utility.yul\":4998:5003   */\n      dup2\n        /* \"#utility.yul\":4980:5004   */\n      tag_88\n      jump\t// in\n    tag_137:\n        /* \"#utility.yul\":4973:4978   */\n      dup2\n        /* \"#utility.yul\":4970:5005   */\n      eq\n        /* \"#utility.yul\":4960:5023   */\n      tag_138\n      jumpi\n        /* \"#utility.yul\":5019:5020   */\n      0x00\n        /* \"#utility.yul\":5016:5017   */\n      dup1\n        /* \"#utility.yul\":5009:5021   */\n      revert\n        /* \"#utility.yul\":4960:5023   */\n    tag_138:\n        /* \"#utility.yul\":4907:5029   */\n      pop\n      jump\t// out\n\n    auxdata: 0xa26469706673582212204f6885ce5f0cd577d88713a439887deea0ad9d8a5eaa4a71419801f148554c2f64736f6c63430008070033\n}\n",
				"bytecode": {
					"linkReferences": {},
					"object": "6080604052600a600255674563918244f40000600355670de0b6b3a764000060045534801561002d57600080fd5b50336000806101000a81548173ffffffffffffffffffffffffffffffffffffffff021916908373ffffffffffffffffffffffffffffffffffffffff1602179055506109e38061007d6000396000f3fe608060405234801561001057600080fd5b50600436106100625760003560e01c8063052a76e914610067578063095275b2146100855780634ffd54e6146100a157806370d0099b146100bd57806393ea9d5b146100db578063b0f6392d146100f9575b600080fd5b61006f610115565b60405161007c91906108b7565b60405180910390f35b61009f600480360381019061009a919061076a565b61011b565b005b6100bb60048036038101906100b6919061076a565b6102a1565b005b6100c5610427565b6040516100d291906108b7565b60405180910390f35b6100e361042d565b6040516100f091906108b7565b60405180910390f35b610113600480360381019061010e9190610797565b610433565b005b60025481565b6000600160009054906101000a900473ffffffffffffffffffffffffffffffffffffffff1673ffffffffffffffffffffffffffffffffffffffff1660008054906101000a900473ffffffffffffffffffffffffffffffffffffffff168360045460405160240161018d93929190610860565b6040516020818303038152906040527f23b872dd000000000000000000000000000000000000000000000000000000007bffffffffffffffffffffffffffffffffffffffffffffffffffffffff19166020820180517bffffffffffffffffffffffffffffffffffffffffffffffffffffffff83818316178352505050506040516102179190610849565b6000604051808303816000865af19150503d8060008114610254576040519150601f19603f3d011682016040523d82523d6000602084013e610259565b606091505b505090508061029d576040517f08c379a000000000000000000000000000000000000000000000000000000000815260040161029490610897565b60405180910390fd5b5050565b6000600160009054906101000a900473ffffffffffffffffffffffffffffffffffffffff1673ffffffffffffffffffffffffffffffffffffffff1660008054906101000a900473ffffffffffffffffffffffffffffffffffffffff168360025460405160240161031393929190610860565b6040516020818303038152906040527f23b872dd000000000000000000000000000000000000000000000000000000007bffffffffffffffffffffffffffffffffffffffffffffffffffffffff19166020820180517bffffffffffffffffffffffffffffffffffffffffffffffffffffffff838183161783525050505060405161039d9190610849565b6000604051808303816000865af19150503d80600081146103da576040519150601f19603f3d011682016040523d82523d6000602084013e6103df565b606091505b5050905080610423576040517f08c379a000000000000000000000000000000000000000000000000000000000815260040161041a90610897565b60405180910390fd5b5050565b60035481565b60045481565b61043c82610449565b610445816105cf565b5050565b6000600160009054906101000a900473ffffffffffffffffffffffffffffffffffffffff1673ffffffffffffffffffffffffffffffffffffffff1660008054906101000a900473ffffffffffffffffffffffffffffffffffffffff16836003546040516024016104bb93929190610860565b6040516020818303038152906040527f23b872dd000000000000000000000000000000000000000000000000000000007bffffffffffffffffffffffffffffffffffffffffffffffffffffffff19166020820180517bffffffffffffffffffffffffffffffffffffffffffffffffffffffff83818316178352505050506040516105459190610849565b6000604051808303816000865af19150503d8060008114610582576040519150601f19603f3d011682016040523d82523d6000602084013e610587565b606091505b50509050806105cb576040517f08c379a00000000000000000000000000000000000000000000000000000000081526004016105c290610897565b60405180910390fd5b5050565b6000600160009054906101000a900473ffffffffffffffffffffffffffffffffffffffff1673ffffffffffffffffffffffffffffffffffffffff1660008054906101000a900473ffffffffffffffffffffffffffffffffffffffff168360035460405160240161064193929190610860565b6040516020818303038152906040527f23b872dd000000000000000000000000000000000000000000000000000000007bffffffffffffffffffffffffffffffffffffffffffffffffffffffff19166020820180517bffffffffffffffffffffffffffffffffffffffffffffffffffffffff83818316178352505050506040516106cb9190610849565b6000604051808303816000865af19150503d8060008114610708576040519150601f19603f3d011682016040523d82523d6000602084013e61070d565b606091505b5050905080610751576040517f08c379a000000000000000000000000000000000000000000000000000000000815260040161074890610897565b60405180910390fd5b5050565b60008135905061076481610996565b92915050565b6000602082840312156107805761077f610968565b5b600061078e84828501610755565b91505092915050565b600080604083850312156107ae576107ad610968565b5b60006107bc85828601610755565b92505060206107cd85828601610755565b9150509250929050565b6107e0816108f9565b82525050565b60006107f1826108d2565b6107fb81856108dd565b935061080b818560208601610935565b80840191505092915050565b60006108246012836108e8565b915061082f8261096d565b602082019050919050565b6108438161092b565b82525050565b600061085582846107e6565b915081905092915050565b600060608201905061087560008301866107d7565b61088260208301856107d7565b61088f604083018461083a565b949350505050565b600060208201905081810360008301526108b081610817565b9050919050565b60006020820190506108cc600083018461083a565b92915050565b600081519050919050565b600081905092915050565b600082825260208201905092915050565b60006109048261090b565b9050919050565b600073ffffffffffffffffffffffffffffffffffffffff82169050919050565b6000819050919050565b60005b83811015610953578082015181840152602081019050610938565b83811115610962576000848401525b50505050565b600080fd5b7f5472616e73616374696f6e206661696c65640000000000000000000000000000600082015250565b61099f816108f9565b81146109aa57600080fd5b5056fea26469706673582212204f6885ce5f0cd577d88713a439887deea0ad9d8a5eaa4a71419801f148554c2f64736f6c63430008070033",
					"opcodes": "PUSH1 0x80 PUSH1 0x40 MSTORE PUSH1 0xA PUSH1 0x2 SSTORE PUSH8 0x4563918244F40000 PUSH1 0x3 SSTORE PUSH8 0xDE0B6B3A7640000 PUSH1 0x4 SSTORE CALLVALUE DUP1 ISZERO PUSH2 0x2D JUMPI PUSH1 0x0 DUP1 REVERT JUMPDEST POP CALLER PUSH1 0x0 DUP1 PUSH2 0x100 EXP DUP2 SLOAD DUP2 PUSH20 0xFFFFFFFFFFFFFFFFFFFFFFFFFFFFFFFFFFFFFFFF MUL NOT AND SWAP1 DUP4 PUSH20 0xFFFFFFFFFFFFFFFFFFFFFFFFFFFFFFFFFFFFFFFF AND MUL OR SWAP1 SSTORE POP PUSH2 0x9E3 DUP1 PUSH2 0x7D PUSH1 0x0 CODECOPY PUSH1 0x0 RETURN INVALID PUSH1 0x80 PUSH1 0x40 MSTORE CALLVALUE DUP1 ISZERO PUSH2 0x10 JUMPI PUSH1 0x0 DUP1 REVERT JUMPDEST POP PUSH1 0x4 CALLDATASIZE LT PUSH2 0x62 JUMPI PUSH1 0x0 CALLDATALOAD PUSH1 0xE0 SHR DUP1 PUSH4 0x52A76E9 EQ PUSH2 0x67 JUMPI DUP1 PUSH4 0x95275B2 EQ PUSH2 0x85 JUMPI DUP1 PUSH4 0x4FFD54E6 EQ PUSH2 0xA1 JUMPI DUP1 PUSH4 0x70D0099B EQ PUSH2 0xBD JUMPI DUP1 PUSH4 0x93EA9D5B EQ PUSH2 0xDB JUMPI DUP1 PUSH4 0xB0F6392D EQ PUSH2 0xF9 JUMPI JUMPDEST PUSH1 0x0 DUP1 REVERT JUMPDEST PUSH2 0x6F PUSH2 0x115 JUMP JUMPDEST PUSH1 0x40 MLOAD PUSH2 0x7C SWAP2 SWAP1 PUSH2 0x8B7 JUMP JUMPDEST PUSH1 0x40 MLOAD DUP1 SWAP2 SUB SWAP1 RETURN JUMPDEST PUSH2 0x9F PUSH1 0x4 DUP1 CALLDATASIZE SUB DUP2 ADD SWAP1 PUSH2 0x9A SWAP2 SWAP1 PUSH2 0x76A JUMP JUMPDEST PUSH2 0x11B JUMP JUMPDEST STOP JUMPDEST PUSH2 0xBB PUSH1 0x4 DUP1 CALLDATASIZE SUB DUP2 ADD SWAP1 PUSH2 0xB6 SWAP2 SWAP1 PUSH2 0x76A JUMP JUMPDEST PUSH2 0x2A1 JUMP JUMPDEST STOP JUMPDEST PUSH2 0xC5 PUSH2 0x427 JUMP JUMPDEST PUSH1 0x40 MLOAD PUSH2 0xD2 SWAP2 SWAP1 PUSH2 0x8B7 JUMP JUMPDEST PUSH1 0x40 MLOAD DUP1 SWAP2 SUB SWAP1 RETURN JUMPDEST PUSH2 0xE3 PUSH2 0x42D JUMP JUMPDEST PUSH1 0x40 MLOAD PUSH2 0xF0 SWAP2 SWAP1 PUSH2 0x8B7 JUMP JUMPDEST PUSH1 0x40 MLOAD DUP1 SWAP2 SUB SWAP1 RETURN JUMPDEST PUSH2 0x113 PUSH1 0x4 DUP1 CALLDATASIZE SUB DUP2 ADD SWAP1 PUSH2 0x10E SWAP2 SWAP1 PUSH2 0x797 JUMP JUMPDEST PUSH2 0x433 JUMP JUMPDEST STOP JUMPDEST PUSH1 0x2 SLOAD DUP2 JUMP JUMPDEST PUSH1 0x0 PUSH1 0x1 PUSH1 0x0 SWAP1 SLOAD SWAP1 PUSH2 0x100 EXP SWAP1 DIV PUSH20 0xFFFFFFFFFFFFFFFFFFFFFFFFFFFFFFFFFFFFFFFF AND PUSH20 0xFFFFFFFFFFFFFFFFFFFFFFFFFFFFFFFFFFFFFFFF AND PUSH1 0x0 DUP1 SLOAD SWAP1 PUSH2 0x100 EXP SWAP1 DIV PUSH20 0xFFFFFFFFFFFFFFFFFFFFFFFFFFFFFFFFFFFFFFFF AND DUP4 PUSH1 0x4 SLOAD PUSH1 0x40 MLOAD PUSH1 0x24 ADD PUSH2 0x18D SWAP4 SWAP3 SWAP2 SWAP1 PUSH2 0x860 JUMP JUMPDEST PUSH1 0x40 MLOAD PUSH1 0x20 DUP2 DUP4 SUB SUB DUP2 MSTORE SWAP1 PUSH1 0x40 MSTORE PUSH32 0x23B872DD00000000000000000000000000000000000000000000000000000000 PUSH28 0xFFFFFFFFFFFFFFFFFFFFFFFFFFFFFFFFFFFFFFFFFFFFFFFFFFFFFFFF NOT AND PUSH1 0x20 DUP3 ADD DUP1 MLOAD PUSH28 0xFFFFFFFFFFFFFFFFFFFFFFFFFFFFFFFFFFFFFFFFFFFFFFFFFFFFFFFF DUP4 DUP2 DUP4 AND OR DUP4 MSTORE POP POP POP POP PUSH1 0x40 MLOAD PUSH2 0x217 SWAP2 SWAP1 PUSH2 0x849 JUMP JUMPDEST PUSH1 0x0 PUSH1 0x40 MLOAD DUP1 DUP4 SUB DUP2 PUSH1 0x0 DUP7 GAS CALL SWAP2 POP POP RETURNDATASIZE DUP1 PUSH1 0x0 DUP2 EQ PUSH2 0x254 JUMPI PUSH1 0x40 MLOAD SWAP2 POP PUSH1 0x1F NOT PUSH1 0x3F RETURNDATASIZE ADD AND DUP3 ADD PUSH1 0x40 MSTORE RETURNDATASIZE DUP3 MSTORE RETURNDATASIZE PUSH1 0x0 PUSH1 0x20 DUP5 ADD RETURNDATACOPY PUSH2 0x259 JUMP JUMPDEST PUSH1 0x60 SWAP2 POP JUMPDEST POP POP SWAP1 POP DUP1 PUSH2 0x29D JUMPI PUSH1 0x40 MLOAD PUSH32 0x8C379A000000000000000000000000000000000000000000000000000000000 DUP2 MSTORE PUSH1 0x4 ADD PUSH2 0x294 SWAP1 PUSH2 0x897 JUMP JUMPDEST PUSH1 0x40 MLOAD DUP1 SWAP2 SUB SWAP1 REVERT JUMPDEST POP POP JUMP JUMPDEST PUSH1 0x0 PUSH1 0x1 PUSH1 0x0 SWAP1 SLOAD SWAP1 PUSH2 0x100 EXP SWAP1 DIV PUSH20 0xFFFFFFFFFFFFFFFFFFFFFFFFFFFFFFFFFFFFFFFF AND PUSH20 0xFFFFFFFFFFFFFFFFFFFFFFFFFFFFFFFFFFFFFFFF AND PUSH1 0x0 DUP1 SLOAD SWAP1 PUSH2 0x100 EXP SWAP1 DIV PUSH20 0xFFFFFFFFFFFFFFFFFFFFFFFFFFFFFFFFFFFFFFFF AND DUP4 PUSH1 0x2 SLOAD PUSH1 0x40 MLOAD PUSH1 0x24 ADD PUSH2 0x313 SWAP4 SWAP3 SWAP2 SWAP1 PUSH2 0x860 JUMP JUMPDEST PUSH1 0x40 MLOAD PUSH1 0x20 DUP2 DUP4 SUB SUB DUP2 MSTORE SWAP1 PUSH1 0x40 MSTORE PUSH32 0x23B872DD00000000000000000000000000000000000000000000000000000000 PUSH28 0xFFFFFFFFFFFFFFFFFFFFFFFFFFFFFFFFFFFFFFFFFFFFFFFFFFFFFFFF NOT AND PUSH1 0x20 DUP3 ADD DUP1 MLOAD PUSH28 0xFFFFFFFFFFFFFFFFFFFFFFFFFFFFFFFFFFFFFFFFFFFFFFFFFFFFFFFF DUP4 DUP2 DUP4 AND OR DUP4 MSTORE POP POP POP POP PUSH1 0x40 MLOAD PUSH2 0x39D SWAP2 SWAP1 PUSH2 0x849 JUMP JUMPDEST PUSH1 0x0 PUSH1 0x40 MLOAD DUP1 DUP4 SUB DUP2 PUSH1 0x0 DUP7 GAS CALL SWAP2 POP POP RETURNDATASIZE DUP1 PUSH1 0x0 DUP2 EQ PUSH2 0x3DA JUMPI PUSH1 0x40 MLOAD SWAP2 POP PUSH1 0x1F NOT PUSH1 0x3F RETURNDATASIZE ADD AND DUP3 ADD PUSH1 0x40 MSTORE RETURNDATASIZE DUP3 MSTORE RETURNDATASIZE PUSH1 0x0 PUSH1 0x20 DUP5 ADD RETURNDATACOPY PUSH2 0x3DF JUMP JUMPDEST PUSH1 0x60 SWAP2 POP JUMPDEST POP POP SWAP1 POP DUP1 PUSH2 0x423 JUMPI PUSH1 0x40 MLOAD PUSH32 0x8C379A000000000000000000000000000000000000000000000000000000000 DUP2 MSTORE PUSH1 0x4 ADD PUSH2 0x41A SWAP1 PUSH2 0x897 JUMP JUMPDEST PUSH1 0x40 MLOAD DUP1 SWAP2 SUB SWAP1 REVERT JUMPDEST POP POP JUMP JUMPDEST PUSH1 0x3 SLOAD DUP2 JUMP JUMPDEST PUSH1 0x4 SLOAD DUP2 JUMP JUMPDEST PUSH2 0x43C DUP3 PUSH2 0x449 JUMP JUMPDEST PUSH2 0x445 DUP2 PUSH2 0x5CF JUMP JUMPDEST POP POP JUMP JUMPDEST PUSH1 0x0 PUSH1 0x1 PUSH1 0x0 SWAP1 SLOAD SWAP1 PUSH2 0x100 EXP SWAP1 DIV PUSH20 0xFFFFFFFFFFFFFFFFFFFFFFFFFFFFFFFFFFFFFFFF AND PUSH20 0xFFFFFFFFFFFFFFFFFFFFFFFFFFFFFFFFFFFFFFFF AND PUSH1 0x0 DUP1 SLOAD SWAP1 PUSH2 0x100 EXP SWAP1 DIV PUSH20 0xFFFFFFFFFFFFFFFFFFFFFFFFFFFFFFFFFFFFFFFF AND DUP4 PUSH1 0x3 SLOAD PUSH1 0x40 MLOAD PUSH1 0x24 ADD PUSH2 0x4BB SWAP4 SWAP3 SWAP2 SWAP1 PUSH2 0x860 JUMP JUMPDEST PUSH1 0x40 MLOAD PUSH1 0x20 DUP2 DUP4 SUB SUB DUP2 MSTORE SWAP1 PUSH1 0x40 MSTORE PUSH32 0x23B872DD00000000000000000000000000000000000000000000000000000000 PUSH28 0xFFFFFFFFFFFFFFFFFFFFFFFFFFFFFFFFFFFFFFFFFFFFFFFFFFFFFFFF NOT AND PUSH1 0x20 DUP3 ADD DUP1 MLOAD PUSH28 0xFFFFFFFFFFFFFFFFFFFFFFFFFFFFFFFFFFFFFFFFFFFFFFFFFFFFFFFF DUP4 DUP2 DUP4 AND OR DUP4 MSTORE POP POP POP POP PUSH1 0x40 MLOAD PUSH2 0x545 SWAP2 SWAP1 PUSH2 0x849 JUMP JUMPDEST PUSH1 0x0 PUSH1 0x40 MLOAD DUP1 DUP4 SUB DUP2 PUSH1 0x0 DUP7 GAS CALL SWAP2 POP POP RETURNDATASIZE DUP1 PUSH1 0x0 DUP2 EQ PUSH2 0x582 JUMPI PUSH1 0x40 MLOAD SWAP2 POP PUSH1 0x1F NOT PUSH1 0x3F RETURNDATASIZE ADD AND DUP3 ADD PUSH1 0x40 MSTORE RETURNDATASIZE DUP3 MSTORE RETURNDATASIZE PUSH1 0x0 PUSH1 0x20 DUP5 ADD RETURNDATACOPY PUSH2 0x587 JUMP JUMPDEST PUSH1 0x60 SWAP2 POP JUMPDEST POP POP SWAP1 POP DUP1 PUSH2 0x5CB JUMPI PUSH1 0x40 MLOAD PUSH32 0x8C379A000000000000000000000000000000000000000000000000000000000 DUP2 MSTORE PUSH1 0x4 ADD PUSH2 0x5C2 SWAP1 PUSH2 0x897 JUMP JUMPDEST PUSH1 0x40 MLOAD DUP1 SWAP2 SUB SWAP1 REVERT JUMPDEST POP POP JUMP JUMPDEST PUSH1 0x0 PUSH1 0x1 PUSH1 0x0 SWAP1 SLOAD SWAP1 PUSH2 0x100 EXP SWAP1 DIV PUSH20 0xFFFFFFFFFFFFFFFFFFFFFFFFFFFFFFFFFFFFFFFF AND PUSH20 0xFFFFFFFFFFFFFFFFFFFFFFFFFFFFFFFFFFFFFFFF AND PUSH1 0x0 DUP1 SLOAD SWAP1 PUSH2 0x100 EXP SWAP1 DIV PUSH20 0xFFFFFFFFFFFFFFFFFFFFFFFFFFFFFFFFFFFFFFFF AND DUP4 PUSH1 0x3 SLOAD PUSH1 0x40 MLOAD PUSH1 0x24 ADD PUSH2 0x641 SWAP4 SWAP3 SWAP2 SWAP1 PUSH2 0x860 JUMP JUMPDEST PUSH1 0x40 MLOAD PUSH1 0x20 DUP2 DUP4 SUB SUB DUP2 MSTORE SWAP1 PUSH1 0x40 MSTORE PUSH32 0x23B872DD00000000000000000000000000000000000000000000000000000000 PUSH28 0xFFFFFFFFFFFFFFFFFFFFFFFFFFFFFFFFFFFFFFFFFFFFFFFFFFFFFFFF NOT AND PUSH1 0x20 DUP3 ADD DUP1 MLOAD PUSH28 0xFFFFFFFFFFFFFFFFFFFFFFFFFFFFFFFFFFFFFFFFFFFFFFFFFFFFFFFF DUP4 DUP2 DUP4 AND OR DUP4 MSTORE POP POP POP POP PUSH1 0x40 MLOAD PUSH2 0x6CB SWAP2 SWAP1 PUSH2 0x849 JUMP JUMPDEST PUSH1 0x0 PUSH1 0x40 MLOAD DUP1 DUP4 SUB DUP2 PUSH1 0x0 DUP7 GAS CALL SWAP2 POP POP RETURNDATASIZE DUP1 PUSH1 0x0 DUP2 EQ PUSH2 0x708 JUMPI PUSH1 0x40 MLOAD SWAP2 POP PUSH1 0x1F NOT PUSH1 0x3F RETURNDATASIZE ADD AND DUP3 ADD PUSH1 0x40 MSTORE RETURNDATASIZE DUP3 MSTORE RETURNDATASIZE PUSH1 0x0 PUSH1 0x20 DUP5 ADD RETURNDATACOPY PUSH2 0x70D JUMP JUMPDEST PUSH1 0x60 SWAP2 POP JUMPDEST POP POP SWAP1 POP DUP1 PUSH2 0x751 JUMPI PUSH1 0x40 MLOAD PUSH32 0x8C379A000000000000000000000000000000000000000000000000000000000 DUP2 MSTORE PUSH1 0x4 ADD PUSH2 0x748 SWAP1 PUSH2 0x897 JUMP JUMPDEST PUSH1 0x40 MLOAD DUP1 SWAP2 SUB SWAP1 REVERT JUMPDEST POP POP JUMP JUMPDEST PUSH1 0x0 DUP2 CALLDATALOAD SWAP1 POP PUSH2 0x764 DUP2 PUSH2 0x996 JUMP JUMPDEST SWAP3 SWAP2 POP POP JUMP JUMPDEST PUSH1 0x0 PUSH1 0x20 DUP3 DUP5 SUB SLT ISZERO PUSH2 0x780 JUMPI PUSH2 0x77F PUSH2 0x968 JUMP JUMPDEST JUMPDEST PUSH1 0x0 PUSH2 0x78E DUP5 DUP3 DUP6 ADD PUSH2 0x755 JUMP JUMPDEST SWAP2 POP POP SWAP3 SWAP2 POP POP JUMP JUMPDEST PUSH1 0x0 DUP1 PUSH1 0x40 DUP4 DUP6 SUB SLT ISZERO PUSH2 0x7AE JUMPI PUSH2 0x7AD PUSH2 0x968 JUMP JUMPDEST JUMPDEST PUSH1 0x0 PUSH2 0x7BC DUP6 DUP3 DUP7 ADD PUSH2 0x755 JUMP JUMPDEST SWAP3 POP POP PUSH1 0x20 PUSH2 0x7CD DUP6 DUP3 DUP7 ADD PUSH2 0x755 JUMP JUMPDEST SWAP2 POP POP SWAP3 POP SWAP3 SWAP1 POP JUMP JUMPDEST PUSH2 0x7E0 DUP2 PUSH2 0x8F9 JUMP JUMPDEST DUP3 MSTORE POP POP JUMP JUMPDEST PUSH1 0x0 PUSH2 0x7F1 DUP3 PUSH2 0x8D2 JUMP JUMPDEST PUSH2 0x7FB DUP2 DUP6 PUSH2 0x8DD JUMP JUMPDEST SWAP4 POP PUSH2 0x80B DUP2 DUP6 PUSH1 0x20 DUP7 ADD PUSH2 0x935 JUMP JUMPDEST DUP1 DUP5 ADD SWAP2 POP POP SWAP3 SWAP2 POP POP JUMP JUMPDEST PUSH1 0x0 PUSH2 0x824 PUSH1 0x12 DUP4 PUSH2 0x8E8 JUMP JUMPDEST SWAP2 POP PUSH2 0x82F DUP3 PUSH2 0x96D JUMP JUMPDEST PUSH1 0x20 DUP3 ADD SWAP1 POP SWAP2 SWAP1 POP JUMP JUMPDEST PUSH2 0x843 DUP2 PUSH2 0x92B JUMP JUMPDEST DUP3 MSTORE POP POP JUMP JUMPDEST PUSH1 0x0 PUSH2 0x855 DUP3 DUP5 PUSH2 0x7E6 JUMP JUMPDEST SWAP2 POP DUP2 SWAP1 POP SWAP3 SWAP2 POP POP JUMP JUMPDEST PUSH1 0x0 PUSH1 0x60 DUP3 ADD SWAP1 POP PUSH2 0x875 PUSH1 0x0 DUP4 ADD DUP7 PUSH2 0x7D7 JUMP JUMPDEST PUSH2 0x882 PUSH1 0x20 DUP4 ADD DUP6 PUSH2 0x7D7 JUMP JUMPDEST PUSH2 0x88F PUSH1 0x40 DUP4 ADD DUP5 PUSH2 0x83A JUMP JUMPDEST SWAP5 SWAP4 POP POP POP POP JUMP JUMPDEST PUSH1 0x0 PUSH1 0x20 DUP3 ADD SWAP1 POP DUP2 DUP2 SUB PUSH1 0x0 DUP4 ADD MSTORE PUSH2 0x8B0 DUP2 PUSH2 0x817 JUMP JUMPDEST SWAP1 POP SWAP2 SWAP1 POP JUMP JUMPDEST PUSH1 0x0 PUSH1 0x20 DUP3 ADD SWAP1 POP PUSH2 0x8CC PUSH1 0x0 DUP4 ADD DUP5 PUSH2 0x83A JUMP JUMPDEST SWAP3 SWAP2 POP POP JUMP JUMPDEST PUSH1 0x0 DUP2 MLOAD SWAP1 POP SWAP2 SWAP1 POP JUMP JUMPDEST PUSH1 0x0 DUP2 SWAP1 POP SWAP3 SWAP2 POP POP JUMP JUMPDEST PUSH1 0x0 DUP3 DUP3 MSTORE PUSH1 0x20 DUP3 ADD SWAP1 POP SWAP3 SWAP2 POP POP JUMP JUMPDEST PUSH1 0x0 PUSH2 0x904 DUP3 PUSH2 0x90B JUMP JUMPDEST SWAP1 POP SWAP2 SWAP1 POP JUMP JUMPDEST PUSH1 0x0 PUSH20 0xFFFFFFFFFFFFFFFFFFFFFFFFFFFFFFFFFFFFFFFF DUP3 AND SWAP1 POP SWAP2 SWAP1 POP JUMP JUMPDEST PUSH1 0x0 DUP2 SWAP1 POP SWAP2 SWAP1 POP JUMP JUMPDEST PUSH1 0x0 JUMPDEST DUP4 DUP2 LT ISZERO PUSH2 0x953 JUMPI DUP1 DUP3 ADD MLOAD DUP2 DUP5 ADD MSTORE PUSH1 0x20 DUP2 ADD SWAP1 POP PUSH2 0x938 JUMP JUMPDEST DUP4 DUP2 GT ISZERO PUSH2 0x962 JUMPI PUSH1 0x0 DUP5 DUP5 ADD MSTORE JUMPDEST POP POP POP POP JUMP JUMPDEST PUSH1 0x0 DUP1 REVERT JUMPDEST PUSH32 0x5472616E73616374696F6E206661696C65640000000000000000000000000000 PUSH1 0x0 DUP3 ADD MSTORE POP JUMP JUMPDEST PUSH2 0x99F DUP2 PUSH2 0x8F9 JUMP JUMPDEST DUP2 EQ PUSH2 0x9AA JUMPI PUSH1 0x0 DUP1 REVERT JUMPDEST POP JUMP INVALID LOG2 PUSH5 0x6970667358 0x22 SLT KECCAK256 0x4F PUSH9 0x85CE5F0CD577D88713 LOG4 CODECOPY DUP9 PUSH30 0xEEA0AD9D8A5EAA4A71419801F148554C2F64736F6C634300080700330000 "
				},
				"gasEstimates": {
					"creation": {
						"codeDepositCost": "506200",
						"executionCost": "91127",
						"totalCost": "597327"
					},
					"external": {
						"completedStudyBonus()": "2495",
						"completedStudyReward(address)": "infinite",
						"firstCollectionBonus()": "2407",
						"firstCollectionReward(address)": "infinite",
						"invitedFriendBonus()": "2473",
						"invitedFriendReward(address,address)": "infinite"
					},
					"internal": {
						"invitedFriendNewUser(address)": "infinite",
						"invitedFriendUser(address)": "infinite"
					}
				},
				"methodIdentifiers": {
					"completedStudyBonus()": "93ea9d5b",
					"completedStudyReward(address)": "095275b2",
					"firstCollectionBonus()": "052a76e9",
					"firstCollectionReward(address)": "4ffd54e6",
					"invitedFriendBonus()": "70d0099b",
					"invitedFriendReward(address,address)": "b0f6392d"
				}
			},
			"storageLayout": {
				"storage": [
					{
						"astId": 3,
						"contract": "contracts/CallRewards.sol:CallRewards",
						"label": "thisOwner",
						"offset": 0,
						"slot": "0",
						"type": "t_address"
					},
					{
						"astId": 5,
						"contract": "contracts/CallRewards.sol:CallRewards",
						"label": "TinToken",
						"offset": 0,
						"slot": "1",
						"type": "t_address"
					},
					{
						"astId": 8,
						"contract": "contracts/CallRewards.sol:CallRewards",
						"label": "firstCollectionBonus",
						"offset": 0,
						"slot": "2",
						"type": "t_uint256"
					},
					{
						"astId": 11,
						"contract": "contracts/CallRewards.sol:CallRewards",
						"label": "invitedFriendBonus",
						"offset": 0,
						"slot": "3",
						"type": "t_uint256"
					},
					{
						"astId": 14,
						"contract": "contracts/CallRewards.sol:CallRewards",
						"label": "completedStudyBonus",
						"offset": 0,
						"slot": "4",
						"type": "t_uint256"
					}
				],
				"types": {
					"t_address": {
						"encoding": "inplace",
						"label": "address",
						"numberOfBytes": "20"
					},
					"t_uint256": {
						"encoding": "inplace",
						"label": "uint256",
						"numberOfBytes": "32"
					}
				}
			},
			"userdoc": {
				"kind": "user",
				"methods": {},
				"version": 1
			}
		}
	}
}