{
	"contracts/CallRewards.sol": {
		"CallRewards": {
			"abi": [
				{
					"inputs": [],
					"stateMutability": "nonpayable",
					"type": "constructor"
				},
				{
					"inputs": [],
					"name": "completedStudyBonus",
					"outputs": [
						{
							"internalType": "uint256",
							"name": "",
							"type": "uint256"
						}
					],
					"stateMutability": "view",
					"type": "function"
				},
				{
					"inputs": [
						{
							"internalType": "address",
							"name": "TinToken",
							"type": "address"
						},
						{
							"internalType": "address",
							"name": "_user",
							"type": "address"
						}
					],
					"name": "completedStudyReward",
					"outputs": [],
					"stateMutability": "nonpayable",
					"type": "function"
				},
				{
					"inputs": [],
					"name": "firstCollectionBonus",
					"outputs": [
						{
							"internalType": "uint256",
							"name": "",
							"type": "uint256"
						}
					],
					"stateMutability": "view",
					"type": "function"
				},
				{
					"inputs": [
						{
							"internalType": "address",
							"name": "TinToken",
							"type": "address"
						},
						{
							"internalType": "address",
							"name": "_user",
							"type": "address"
						}
					],
					"name": "firstCollectionReward",
					"outputs": [],
					"stateMutability": "nonpayable",
					"type": "function"
				},
				{
					"inputs": [],
					"name": "invitedFriendBonus",
					"outputs": [
						{
							"internalType": "uint256",
							"name": "",
							"type": "uint256"
						}
					],
					"stateMutability": "view",
					"type": "function"
				},
				{
					"inputs": [
						{
							"internalType": "address",
							"name": "TinToken",
							"type": "address"
						},
						{
							"internalType": "address",
							"name": "_user",
							"type": "address"
						},
						{
							"internalType": "address",
							"name": "_newUser",
							"type": "address"
						}
					],
					"name": "invitedFriendReward",
					"outputs": [],
					"stateMutability": "nonpayable",
					"type": "function"
				}
			],
			"devdoc": {
				"kind": "dev",
				"methods": {},
				"version": 1
			},
			"evm": {
				"assembly": "    /* \"contracts/CallRewards.sol\":372:2342  contract CallRewards {... */\n  mstore(0x40, 0x80)\n    /* \"contracts/CallRewards.sol\":460:462  10 */\n  0x0a\n    /* \"contracts/CallRewards.sol\":422:462  uint256 public firstCollectionBonus = 10 */\n  0x01\n  sstore\n    /* \"contracts/CallRewards.sol\":504:511  5 ether */\n  0x4563918244f40000\n    /* \"contracts/CallRewards.sol\":468:511  uint256 public invitedFriendBonus = 5 ether */\n  0x02\n  sstore\n    /* \"contracts/CallRewards.sol\":554:561  1 ether */\n  0x0de0b6b3a7640000\n    /* \"contracts/CallRewards.sol\":517:561  uint256 public completedStudyBonus = 1 ether */\n  0x03\n  sstore\n    /* \"contracts/CallRewards.sol\":568:621  constructor() {... */\n  callvalue\n  dup1\n  iszero\n  tag_1\n  jumpi\n  0x00\n  dup1\n  revert\ntag_1:\n  pop\n    /* \"contracts/CallRewards.sol\":604:614  msg.sender */\n  caller\n    /* \"contracts/CallRewards.sol\":592:601  thisOwner */\n  0x00\n  dup1\n    /* \"contracts/CallRewards.sol\":592:614  thisOwner = msg.sender */\n  0x0100\n  exp\n  dup2\n  sload\n  dup2\n  0xffffffffffffffffffffffffffffffffffffffff\n  mul\n  not\n  and\n  swap1\n  dup4\n  0xffffffffffffffffffffffffffffffffffffffff\n  and\n  mul\n  or\n  swap1\n  sstore\n  pop\n    /* \"contracts/CallRewards.sol\":372:2342  contract CallRewards {... */\n  dataSize(sub_0)\n  dup1\n  dataOffset(sub_0)\n  0x00\n  codecopy\n  0x00\n  return\nstop\n\nsub_0: assembly {\n        /* \"contracts/CallRewards.sol\":372:2342  contract CallRewards {... */\n      mstore(0x40, 0x80)\n      callvalue\n      dup1\n      iszero\n      tag_1\n      jumpi\n      0x00\n      dup1\n      revert\n    tag_1:\n      pop\n      jumpi(tag_2, lt(calldatasize, 0x04))\n      shr(0xe0, calldataload(0x00))\n      dup1\n      0x052a76e9\n      eq\n      tag_3\n      jumpi\n      dup1\n      0x23c4a08e\n      eq\n      tag_4\n      jumpi\n      dup1\n      0x69ab66e7\n      eq\n      tag_5\n      jumpi\n      dup1\n      0x70d0099b\n      eq\n      tag_6\n      jumpi\n      dup1\n      0x93ea9d5b\n      eq\n      tag_7\n      jumpi\n      dup1\n      0xe6350f7c\n      eq\n      tag_8\n      jumpi\n    tag_2:\n      0x00\n      dup1\n      revert\n        /* \"contracts/CallRewards.sol\":422:462  uint256 public firstCollectionBonus = 10 */\n    tag_3:\n      tag_9\n      tag_10\n      jump\t// in\n    tag_9:\n      mload(0x40)\n      tag_11\n      swap2\n      swap1\n      tag_12\n      jump\t// in\n    tag_11:\n      mload(0x40)\n      dup1\n      swap2\n      sub\n      swap1\n      return\n        /* \"contracts/CallRewards.sol\":1385:1573  function invitedFriendReward(address TinToken, address _user, address _newUser) public {... */\n    tag_4:\n      tag_13\n      0x04\n      dup1\n      calldatasize\n      sub\n      dup2\n      add\n      swap1\n      tag_14\n      swap2\n      swap1\n      tag_15\n      jump\t// in\n    tag_14:\n      tag_16\n      jump\t// in\n    tag_13:\n      stop\n        /* \"contracts/CallRewards.sol\":627:1001  function firstCollectionReward(address TinToken, address _user) public {... */\n    tag_5:\n      tag_17\n      0x04\n      dup1\n      calldatasize\n      sub\n      dup2\n      add\n      swap1\n      tag_18\n      swap2\n      swap1\n      tag_19\n      jump\t// in\n    tag_18:\n      tag_20\n      jump\t// in\n    tag_17:\n      stop\n        /* \"contracts/CallRewards.sol\":468:511  uint256 public invitedFriendBonus = 5 ether */\n    tag_6:\n      tag_21\n      tag_22\n      jump\t// in\n    tag_21:\n      mload(0x40)\n      tag_23\n      swap2\n      swap1\n      tag_12\n      jump\t// in\n    tag_23:\n      mload(0x40)\n      dup1\n      swap2\n      sub\n      swap1\n      return\n        /* \"contracts/CallRewards.sol\":517:561  uint256 public completedStudyBonus = 1 ether */\n    tag_7:\n      tag_24\n      tag_25\n      jump\t// in\n    tag_24:\n      mload(0x40)\n      tag_26\n      swap2\n      swap1\n      tag_12\n      jump\t// in\n    tag_26:\n      mload(0x40)\n      dup1\n      swap2\n      sub\n      swap1\n      return\n        /* \"contracts/CallRewards.sol\":1007:1379  function completedStudyReward(address TinToken, address _user) public {... */\n    tag_8:\n      tag_27\n      0x04\n      dup1\n      calldatasize\n      sub\n      dup2\n      add\n      swap1\n      tag_28\n      swap2\n      swap1\n      tag_19\n      jump\t// in\n    tag_28:\n      tag_29\n      jump\t// in\n    tag_27:\n      stop\n        /* \"contracts/CallRewards.sol\":422:462  uint256 public firstCollectionBonus = 10 */\n    tag_10:\n      sload(0x01)\n      dup2\n      jump\t// out\n        /* \"contracts/CallRewards.sol\":1385:1573  function invitedFriendReward(address TinToken, address _user, address _newUser) public {... */\n    tag_16:\n        /* \"contracts/CallRewards.sol\":1482:1516  invitedFriendUser(TinToken, _user) */\n      tag_31\n        /* \"contracts/CallRewards.sol\":1500:1508  TinToken */\n      dup4\n        /* \"contracts/CallRewards.sol\":1510:1515  _user */\n      dup4\n        /* \"contracts/CallRewards.sol\":1482:1499  invitedFriendUser */\n      tag_32\n        /* \"contracts/CallRewards.sol\":1482:1516  invitedFriendUser(TinToken, _user) */\n      jump\t// in\n    tag_31:\n        /* \"contracts/CallRewards.sol\":1526:1566  invitedFriendNewUser(TinToken, _newUser) */\n      tag_33\n        /* \"contracts/CallRewards.sol\":1547:1555  TinToken */\n      dup4\n        /* \"contracts/CallRewards.sol\":1557:1565  _newUser */\n      dup3\n        /* \"contracts/CallRewards.sol\":1526:1546  invitedFriendNewUser */\n      tag_34\n        /* \"contracts/CallRewards.sol\":1526:1566  invitedFriendNewUser(TinToken, _newUser) */\n      jump\t// in\n    tag_33:\n        /* \"contracts/CallRewards.sol\":1385:1573  function invitedFriendReward(address TinToken, address _user, address _newUser) public {... */\n      pop\n      pop\n      pop\n      jump\t// out\n        /* \"contracts/CallRewards.sol\":627:1001  function firstCollectionReward(address TinToken, address _user) public {... */\n    tag_20:\n        /* \"contracts/CallRewards.sol\":709:721  bool success */\n      0x00\n        /* \"contracts/CallRewards.sol\":727:735  TinToken */\n      dup3\n        /* \"contracts/CallRewards.sol\":727:740  TinToken.call */\n      0xffffffffffffffffffffffffffffffffffffffff\n      and\n        /* \"contracts/CallRewards.sol\":852:861  thisOwner */\n      0x00\n      dup1\n      sload\n      swap1\n      0x0100\n      exp\n      swap1\n      div\n      0xffffffffffffffffffffffffffffffffffffffff\n      and\n        /* \"contracts/CallRewards.sol\":879:884  _user */\n      dup4\n        /* \"contracts/CallRewards.sol\":902:922  firstCollectionBonus */\n      sload(0x01)\n        /* \"contracts/CallRewards.sol\":754:936  abi.encodeWithSignature(... */\n      add(0x24, mload(0x40))\n      tag_36\n      swap4\n      swap3\n      swap2\n      swap1\n      tag_37\n      jump\t// in\n    tag_36:\n      mload(0x40)\n      0x20\n      dup2\n      dup4\n      sub\n      sub\n      dup2\n      mstore\n      swap1\n      0x40\n      mstore\n      and(not(0xffffffffffffffffffffffffffffffffffffffffffffffffffffffff), 0x23b872dd00000000000000000000000000000000000000000000000000000000)\n      0x20\n      dup3\n      add\n      dup1\n      mload\n      0xffffffffffffffffffffffffffffffffffffffffffffffffffffffff\n      dup4\n      dup2\n      dup4\n      and\n      or\n      dup4\n      mstore\n      pop\n      pop\n      pop\n      pop\n        /* \"contracts/CallRewards.sol\":727:946  TinToken.call(... */\n      mload(0x40)\n      tag_38\n      swap2\n      swap1\n      tag_39\n      jump\t// in\n    tag_38:\n      0x00\n      mload(0x40)\n      dup1\n      dup4\n      sub\n      dup2\n      0x00\n      dup7\n      gas\n      call\n      swap2\n      pop\n      pop\n      returndatasize\n      dup1\n      0x00\n      dup2\n      eq\n      tag_42\n      jumpi\n      mload(0x40)\n      swap2\n      pop\n      and(add(returndatasize, 0x3f), not(0x1f))\n      dup3\n      add\n      0x40\n      mstore\n      returndatasize\n      dup3\n      mstore\n      returndatasize\n      0x00\n      0x20\n      dup5\n      add\n      returndatacopy\n      jump(tag_41)\n    tag_42:\n      0x60\n      swap2\n      pop\n    tag_41:\n      pop\n        /* \"contracts/CallRewards.sol\":708:946  (bool success, ) = TinToken.call(... */\n      pop\n      swap1\n      pop\n        /* \"contracts/CallRewards.sol\":964:971  success */\n      dup1\n        /* \"contracts/CallRewards.sol\":956:994  require(success, \"Transaction failed\") */\n      tag_43\n      jumpi\n      mload(0x40)\n      0x08c379a000000000000000000000000000000000000000000000000000000000\n      dup2\n      mstore\n      0x04\n      add\n      tag_44\n      swap1\n      tag_45\n      jump\t// in\n    tag_44:\n      mload(0x40)\n      dup1\n      swap2\n      sub\n      swap1\n      revert\n    tag_43:\n        /* \"contracts/CallRewards.sol\":698:1001  {... */\n      pop\n        /* \"contracts/CallRewards.sol\":627:1001  function firstCollectionReward(address TinToken, address _user) public {... */\n      pop\n      pop\n      jump\t// out\n        /* \"contracts/CallRewards.sol\":468:511  uint256 public invitedFriendBonus = 5 ether */\n    tag_22:\n      sload(0x02)\n      dup2\n      jump\t// out\n        /* \"contracts/CallRewards.sol\":517:561  uint256 public completedStudyBonus = 1 ether */\n    tag_25:\n      sload(0x03)\n      dup2\n      jump\t// out\n        /* \"contracts/CallRewards.sol\":1007:1379  function completedStudyReward(address TinToken, address _user) public {... */\n    tag_29:\n        /* \"contracts/CallRewards.sol\":1088:1100  bool success */\n      0x00\n        /* \"contracts/CallRewards.sol\":1106:1114  TinToken */\n      dup3\n        /* \"contracts/CallRewards.sol\":1106:1119  TinToken.call */\n      0xffffffffffffffffffffffffffffffffffffffff\n      and\n        /* \"contracts/CallRewards.sol\":1231:1240  thisOwner */\n      0x00\n      dup1\n      sload\n      swap1\n      0x0100\n      exp\n      swap1\n      div\n      0xffffffffffffffffffffffffffffffffffffffff\n      and\n        /* \"contracts/CallRewards.sol\":1258:1263  _user */\n      dup4\n        /* \"contracts/CallRewards.sol\":1281:1300  completedStudyBonus */\n      sload(0x03)\n        /* \"contracts/CallRewards.sol\":1133:1314  abi.encodeWithSignature(... */\n      add(0x24, mload(0x40))\n      tag_47\n      swap4\n      swap3\n      swap2\n      swap1\n      tag_37\n      jump\t// in\n    tag_47:\n      mload(0x40)\n      0x20\n      dup2\n      dup4\n      sub\n      sub\n      dup2\n      mstore\n      swap1\n      0x40\n      mstore\n      and(not(0xffffffffffffffffffffffffffffffffffffffffffffffffffffffff), 0x23b872dd00000000000000000000000000000000000000000000000000000000)\n      0x20\n      dup3\n      add\n      dup1\n      mload\n      0xffffffffffffffffffffffffffffffffffffffffffffffffffffffff\n      dup4\n      dup2\n      dup4\n      and\n      or\n      dup4\n      mstore\n      pop\n      pop\n      pop\n      pop\n        /* \"contracts/CallRewards.sol\":1106:1324  TinToken.call(... */\n      mload(0x40)\n      tag_48\n      swap2\n      swap1\n      tag_39\n      jump\t// in\n    tag_48:\n      0x00\n      mload(0x40)\n      dup1\n      dup4\n      sub\n      dup2\n      0x00\n      dup7\n      gas\n      call\n      swap2\n      pop\n      pop\n      returndatasize\n      dup1\n      0x00\n      dup2\n      eq\n      tag_51\n      jumpi\n      mload(0x40)\n      swap2\n      pop\n      and(add(returndatasize, 0x3f), not(0x1f))\n      dup3\n      add\n      0x40\n      mstore\n      returndatasize\n      dup3\n      mstore\n      returndatasize\n      0x00\n      0x20\n      dup5\n      add\n      returndatacopy\n      jump(tag_50)\n    tag_51:\n      0x60\n      swap2\n      pop\n    tag_50:\n      pop\n        /* \"contracts/CallRewards.sol\":1087:1324  (bool success, ) = TinToken.call(... */\n      pop\n      swap1\n      pop\n        /* \"contracts/CallRewards.sol\":1342:1349  success */\n      dup1\n        /* \"contracts/CallRewards.sol\":1334:1372  require(success, \"Transaction failed\") */\n      tag_52\n      jumpi\n      mload(0x40)\n      0x08c379a000000000000000000000000000000000000000000000000000000000\n      dup2\n      mstore\n      0x04\n      add\n      tag_53\n      swap1\n      tag_45\n      jump\t// in\n    tag_53:\n      mload(0x40)\n      dup1\n      swap2\n      sub\n      swap1\n      revert\n    tag_52:\n        /* \"contracts/CallRewards.sol\":1077:1379  {... */\n      pop\n        /* \"contracts/CallRewards.sol\":1007:1379  function completedStudyReward(address TinToken, address _user) public {... */\n      pop\n      pop\n      jump\t// out\n        /* \"contracts/CallRewards.sol\":1579:1949  function invitedFriendUser(address TinToken, address _user) internal {... */\n    tag_32:\n        /* \"contracts/CallRewards.sol\":1659:1671  bool success */\n      0x00\n        /* \"contracts/CallRewards.sol\":1677:1685  TinToken */\n      dup3\n        /* \"contracts/CallRewards.sol\":1677:1690  TinToken.call */\n      0xffffffffffffffffffffffffffffffffffffffff\n      and\n        /* \"contracts/CallRewards.sol\":1802:1811  thisOwner */\n      0x00\n      dup1\n      sload\n      swap1\n      0x0100\n      exp\n      swap1\n      div\n      0xffffffffffffffffffffffffffffffffffffffff\n      and\n        /* \"contracts/CallRewards.sol\":1829:1834  _user */\n      dup4\n        /* \"contracts/CallRewards.sol\":1852:1870  invitedFriendBonus */\n      sload(0x02)\n        /* \"contracts/CallRewards.sol\":1704:1884  abi.encodeWithSignature(... */\n      add(0x24, mload(0x40))\n      tag_55\n      swap4\n      swap3\n      swap2\n      swap1\n      tag_37\n      jump\t// in\n    tag_55:\n      mload(0x40)\n      0x20\n      dup2\n      dup4\n      sub\n      sub\n      dup2\n      mstore\n      swap1\n      0x40\n      mstore\n      and(not(0xffffffffffffffffffffffffffffffffffffffffffffffffffffffff), 0x23b872dd00000000000000000000000000000000000000000000000000000000)\n      0x20\n      dup3\n      add\n      dup1\n      mload\n      0xffffffffffffffffffffffffffffffffffffffffffffffffffffffff\n      dup4\n      dup2\n      dup4\n      and\n      or\n      dup4\n      mstore\n      pop\n      pop\n      pop\n      pop\n        /* \"contracts/CallRewards.sol\":1677:1894  TinToken.call(... */\n      mload(0x40)\n      tag_56\n      swap2\n      swap1\n      tag_39\n      jump\t// in\n    tag_56:\n      0x00\n      mload(0x40)\n      dup1\n      dup4\n      sub\n      dup2\n      0x00\n      dup7\n      gas\n      call\n      swap2\n      pop\n      pop\n      returndatasize\n      dup1\n      0x00\n      dup2\n      eq\n      tag_59\n      jumpi\n      mload(0x40)\n      swap2\n      pop\n      and(add(returndatasize, 0x3f), not(0x1f))\n      dup3\n      add\n      0x40\n      mstore\n      returndatasize\n      dup3\n      mstore\n      returndatasize\n      0x00\n      0x20\n      dup5\n      add\n      returndatacopy\n      jump(tag_58)\n    tag_59:\n      0x60\n      swap2\n      pop\n    tag_58:\n      pop\n        /* \"contracts/CallRewards.sol\":1658:1894  (bool success, ) = TinToken.call(... */\n      pop\n      swap1\n      pop\n        /* \"contracts/CallRewards.sol\":1912:1919  success */\n      dup1\n        /* \"contracts/CallRewards.sol\":1904:1942  require(success, \"Transaction failed\") */\n      tag_60\n      jumpi\n      mload(0x40)\n      0x08c379a000000000000000000000000000000000000000000000000000000000\n      dup2\n      mstore\n      0x04\n      add\n      tag_61\n      swap1\n      tag_45\n      jump\t// in\n    tag_61:\n      mload(0x40)\n      dup1\n      swap2\n      sub\n      swap1\n      revert\n    tag_60:\n        /* \"contracts/CallRewards.sol\":1648:1949  {... */\n      pop\n        /* \"contracts/CallRewards.sol\":1579:1949  function invitedFriendUser(address TinToken, address _user) internal {... */\n      pop\n      pop\n      jump\t// out\n        /* \"contracts/CallRewards.sol\":1955:2340  function invitedFriendNewUser(address TinToken, address _newUser) internal {... */\n    tag_34:\n        /* \"contracts/CallRewards.sol\":2041:2056  bool successNew */\n      0x00\n        /* \"contracts/CallRewards.sol\":2062:2070  TinToken */\n      dup3\n        /* \"contracts/CallRewards.sol\":2062:2075  TinToken.call */\n      0xffffffffffffffffffffffffffffffffffffffff\n      and\n        /* \"contracts/CallRewards.sol\":2187:2196  thisOwner */\n      0x00\n      dup1\n      sload\n      swap1\n      0x0100\n      exp\n      swap1\n      div\n      0xffffffffffffffffffffffffffffffffffffffff\n      and\n        /* \"contracts/CallRewards.sol\":2214:2222  _newUser */\n      dup4\n        /* \"contracts/CallRewards.sol\":2240:2258  invitedFriendBonus */\n      sload(0x02)\n        /* \"contracts/CallRewards.sol\":2089:2272  abi.encodeWithSignature(... */\n      add(0x24, mload(0x40))\n      tag_63\n      swap4\n      swap3\n      swap2\n      swap1\n      tag_37\n      jump\t// in\n    tag_63:\n      mload(0x40)\n      0x20\n      dup2\n      dup4\n      sub\n      sub\n      dup2\n      mstore\n      swap1\n      0x40\n      mstore\n      and(not(0xffffffffffffffffffffffffffffffffffffffffffffffffffffffff), 0x23b872dd00000000000000000000000000000000000000000000000000000000)\n      0x20\n      dup3\n      add\n      dup1\n      mload\n      0xffffffffffffffffffffffffffffffffffffffffffffffffffffffff\n      dup4\n      dup2\n      dup4\n      and\n      or\n      dup4\n      mstore\n      pop\n      pop\n      pop\n      pop\n        /* \"contracts/CallRewards.sol\":2062:2282  TinToken.call(... */\n      mload(0x40)\n      tag_64\n      swap2\n      swap1\n      tag_39\n      jump\t// in\n    tag_64:\n      0x00\n      mload(0x40)\n      dup1\n      dup4\n      sub\n      dup2\n      0x00\n      dup7\n      gas\n      call\n      swap2\n      pop\n      pop\n      returndatasize\n      dup1\n      0x00\n      dup2\n      eq\n      tag_67\n      jumpi\n      mload(0x40)\n      swap2\n      pop\n      and(add(returndatasize, 0x3f), not(0x1f))\n      dup3\n      add\n      0x40\n      mstore\n      returndatasize\n      dup3\n      mstore\n      returndatasize\n      0x00\n      0x20\n      dup5\n      add\n      returndatacopy\n      jump(tag_66)\n    tag_67:\n      0x60\n      swap2\n      pop\n    tag_66:\n      pop\n        /* \"contracts/CallRewards.sol\":2040:2282  (bool successNew, ) = TinToken.call(... */\n      pop\n      swap1\n      pop\n        /* \"contracts/CallRewards.sol\":2300:2310  successNew */\n      dup1\n        /* \"contracts/CallRewards.sol\":2292:2333  require(successNew, \"Transaction failed\") */\n      tag_68\n      jumpi\n      mload(0x40)\n      0x08c379a000000000000000000000000000000000000000000000000000000000\n      dup2\n      mstore\n      0x04\n      add\n      tag_69\n      swap1\n      tag_45\n      jump\t// in\n    tag_69:\n      mload(0x40)\n      dup1\n      swap2\n      sub\n      swap1\n      revert\n    tag_68:\n        /* \"contracts/CallRewards.sol\":2030:2340  {... */\n      pop\n        /* \"contracts/CallRewards.sol\":1955:2340  function invitedFriendNewUser(address TinToken, address _newUser) internal {... */\n      pop\n      pop\n      jump\t// out\n        /* \"#utility.yul\":7:146   */\n    tag_71:\n        /* \"#utility.yul\":53:58   */\n      0x00\n        /* \"#utility.yul\":91:97   */\n      dup2\n        /* \"#utility.yul\":78:98   */\n      calldataload\n        /* \"#utility.yul\":69:98   */\n      swap1\n      pop\n        /* \"#utility.yul\":107:140   */\n      tag_73\n        /* \"#utility.yul\":134:139   */\n      dup2\n        /* \"#utility.yul\":107:140   */\n      tag_74\n      jump\t// in\n    tag_73:\n        /* \"#utility.yul\":7:146   */\n      swap3\n      swap2\n      pop\n      pop\n      jump\t// out\n        /* \"#utility.yul\":152:626   */\n    tag_19:\n        /* \"#utility.yul\":220:226   */\n      0x00\n        /* \"#utility.yul\":228:234   */\n      dup1\n        /* \"#utility.yul\":277:279   */\n      0x40\n        /* \"#utility.yul\":265:274   */\n      dup4\n        /* \"#utility.yul\":256:263   */\n      dup6\n        /* \"#utility.yul\":252:275   */\n      sub\n        /* \"#utility.yul\":248:280   */\n      slt\n        /* \"#utility.yul\":245:364   */\n      iszero\n      tag_76\n      jumpi\n        /* \"#utility.yul\":283:362   */\n      tag_77\n      tag_78\n      jump\t// in\n    tag_77:\n        /* \"#utility.yul\":245:364   */\n    tag_76:\n        /* \"#utility.yul\":403:404   */\n      0x00\n        /* \"#utility.yul\":428:481   */\n      tag_79\n        /* \"#utility.yul\":473:480   */\n      dup6\n        /* \"#utility.yul\":464:470   */\n      dup3\n        /* \"#utility.yul\":453:462   */\n      dup7\n        /* \"#utility.yul\":449:471   */\n      add\n        /* \"#utility.yul\":428:481   */\n      tag_71\n      jump\t// in\n    tag_79:\n        /* \"#utility.yul\":418:481   */\n      swap3\n      pop\n        /* \"#utility.yul\":374:491   */\n      pop\n        /* \"#utility.yul\":530:532   */\n      0x20\n        /* \"#utility.yul\":556:609   */\n      tag_80\n        /* \"#utility.yul\":601:608   */\n      dup6\n        /* \"#utility.yul\":592:598   */\n      dup3\n        /* \"#utility.yul\":581:590   */\n      dup7\n        /* \"#utility.yul\":577:599   */\n      add\n        /* \"#utility.yul\":556:609   */\n      tag_71\n      jump\t// in\n    tag_80:\n        /* \"#utility.yul\":546:609   */\n      swap2\n      pop\n        /* \"#utility.yul\":501:619   */\n      pop\n        /* \"#utility.yul\":152:626   */\n      swap3\n      pop\n      swap3\n      swap1\n      pop\n      jump\t// out\n        /* \"#utility.yul\":632:1251   */\n    tag_15:\n        /* \"#utility.yul\":709:715   */\n      0x00\n        /* \"#utility.yul\":717:723   */\n      dup1\n        /* \"#utility.yul\":725:731   */\n      0x00\n        /* \"#utility.yul\":774:776   */\n      0x60\n        /* \"#utility.yul\":762:771   */\n      dup5\n        /* \"#utility.yul\":753:760   */\n      dup7\n        /* \"#utility.yul\":749:772   */\n      sub\n        /* \"#utility.yul\":745:777   */\n      slt\n        /* \"#utility.yul\":742:861   */\n      iszero\n      tag_82\n      jumpi\n        /* \"#utility.yul\":780:859   */\n      tag_83\n      tag_78\n      jump\t// in\n    tag_83:\n        /* \"#utility.yul\":742:861   */\n    tag_82:\n        /* \"#utility.yul\":900:901   */\n      0x00\n        /* \"#utility.yul\":925:978   */\n      tag_84\n        /* \"#utility.yul\":970:977   */\n      dup7\n        /* \"#utility.yul\":961:967   */\n      dup3\n        /* \"#utility.yul\":950:959   */\n      dup8\n        /* \"#utility.yul\":946:968   */\n      add\n        /* \"#utility.yul\":925:978   */\n      tag_71\n      jump\t// in\n    tag_84:\n        /* \"#utility.yul\":915:978   */\n      swap4\n      pop\n        /* \"#utility.yul\":871:988   */\n      pop\n        /* \"#utility.yul\":1027:1029   */\n      0x20\n        /* \"#utility.yul\":1053:1106   */\n      tag_85\n        /* \"#utility.yul\":1098:1105   */\n      dup7\n        /* \"#utility.yul\":1089:1095   */\n      dup3\n        /* \"#utility.yul\":1078:1087   */\n      dup8\n        /* \"#utility.yul\":1074:1096   */\n      add\n        /* \"#utility.yul\":1053:1106   */\n      tag_71\n      jump\t// in\n    tag_85:\n        /* \"#utility.yul\":1043:1106   */\n      swap3\n      pop\n        /* \"#utility.yul\":998:1116   */\n      pop\n        /* \"#utility.yul\":1155:1157   */\n      0x40\n        /* \"#utility.yul\":1181:1234   */\n      tag_86\n        /* \"#utility.yul\":1226:1233   */\n      dup7\n        /* \"#utility.yul\":1217:1223   */\n      dup3\n        /* \"#utility.yul\":1206:1215   */\n      dup8\n        /* \"#utility.yul\":1202:1224   */\n      add\n        /* \"#utility.yul\":1181:1234   */\n      tag_71\n      jump\t// in\n    tag_86:\n        /* \"#utility.yul\":1171:1234   */\n      swap2\n      pop\n        /* \"#utility.yul\":1126:1244   */\n      pop\n        /* \"#utility.yul\":632:1251   */\n      swap3\n      pop\n      swap3\n      pop\n      swap3\n      jump\t// out\n        /* \"#utility.yul\":1257:1375   */\n    tag_87:\n        /* \"#utility.yul\":1344:1368   */\n      tag_89\n        /* \"#utility.yul\":1362:1367   */\n      dup2\n        /* \"#utility.yul\":1344:1368   */\n      tag_90\n      jump\t// in\n    tag_89:\n        /* \"#utility.yul\":1339:1342   */\n      dup3\n        /* \"#utility.yul\":1332:1369   */\n      mstore\n        /* \"#utility.yul\":1257:1375   */\n      pop\n      pop\n      jump\t// out\n        /* \"#utility.yul\":1381:1754   */\n    tag_91:\n        /* \"#utility.yul\":1485:1488   */\n      0x00\n        /* \"#utility.yul\":1513:1551   */\n      tag_93\n        /* \"#utility.yul\":1545:1550   */\n      dup3\n        /* \"#utility.yul\":1513:1551   */\n      tag_94\n      jump\t// in\n    tag_93:\n        /* \"#utility.yul\":1567:1655   */\n      tag_95\n        /* \"#utility.yul\":1648:1654   */\n      dup2\n        /* \"#utility.yul\":1643:1646   */\n      dup6\n        /* \"#utility.yul\":1567:1655   */\n      tag_96\n      jump\t// in\n    tag_95:\n        /* \"#utility.yul\":1560:1655   */\n      swap4\n      pop\n        /* \"#utility.yul\":1664:1716   */\n      tag_97\n        /* \"#utility.yul\":1709:1715   */\n      dup2\n        /* \"#utility.yul\":1704:1707   */\n      dup6\n        /* \"#utility.yul\":1697:1701   */\n      0x20\n        /* \"#utility.yul\":1690:1695   */\n      dup7\n        /* \"#utility.yul\":1686:1702   */\n      add\n        /* \"#utility.yul\":1664:1716   */\n      tag_98\n      jump\t// in\n    tag_97:\n        /* \"#utility.yul\":1741:1747   */\n      dup1\n        /* \"#utility.yul\":1736:1739   */\n      dup5\n        /* \"#utility.yul\":1732:1748   */\n      add\n        /* \"#utility.yul\":1725:1748   */\n      swap2\n      pop\n        /* \"#utility.yul\":1489:1754   */\n      pop\n        /* \"#utility.yul\":1381:1754   */\n      swap3\n      swap2\n      pop\n      pop\n      jump\t// out\n        /* \"#utility.yul\":1760:2126   */\n    tag_99:\n        /* \"#utility.yul\":1902:1905   */\n      0x00\n        /* \"#utility.yul\":1923:1990   */\n      tag_101\n        /* \"#utility.yul\":1987:1989   */\n      0x12\n        /* \"#utility.yul\":1982:1985   */\n      dup4\n        /* \"#utility.yul\":1923:1990   */\n      tag_102\n      jump\t// in\n    tag_101:\n        /* \"#utility.yul\":1916:1990   */\n      swap2\n      pop\n        /* \"#utility.yul\":1999:2092   */\n      tag_103\n        /* \"#utility.yul\":2088:2091   */\n      dup3\n        /* \"#utility.yul\":1999:2092   */\n      tag_104\n      jump\t// in\n    tag_103:\n        /* \"#utility.yul\":2117:2119   */\n      0x20\n        /* \"#utility.yul\":2112:2115   */\n      dup3\n        /* \"#utility.yul\":2108:2120   */\n      add\n        /* \"#utility.yul\":2101:2120   */\n      swap1\n      pop\n        /* \"#utility.yul\":1760:2126   */\n      swap2\n      swap1\n      pop\n      jump\t// out\n        /* \"#utility.yul\":2132:2250   */\n    tag_105:\n        /* \"#utility.yul\":2219:2243   */\n      tag_107\n        /* \"#utility.yul\":2237:2242   */\n      dup2\n        /* \"#utility.yul\":2219:2243   */\n      tag_108\n      jump\t// in\n    tag_107:\n        /* \"#utility.yul\":2214:2217   */\n      dup3\n        /* \"#utility.yul\":2207:2244   */\n      mstore\n        /* \"#utility.yul\":2132:2250   */\n      pop\n      pop\n      jump\t// out\n        /* \"#utility.yul\":2256:2527   */\n    tag_39:\n        /* \"#utility.yul\":2386:2389   */\n      0x00\n        /* \"#utility.yul\":2408:2501   */\n      tag_110\n        /* \"#utility.yul\":2497:2500   */\n      dup3\n        /* \"#utility.yul\":2488:2494   */\n      dup5\n        /* \"#utility.yul\":2408:2501   */\n      tag_91\n      jump\t// in\n    tag_110:\n        /* \"#utility.yul\":2401:2501   */\n      swap2\n      pop\n        /* \"#utility.yul\":2518:2521   */\n      dup2\n        /* \"#utility.yul\":2511:2521   */\n      swap1\n      pop\n        /* \"#utility.yul\":2256:2527   */\n      swap3\n      swap2\n      pop\n      pop\n      jump\t// out\n        /* \"#utility.yul\":2533:2975   */\n    tag_37:\n        /* \"#utility.yul\":2682:2686   */\n      0x00\n        /* \"#utility.yul\":2720:2722   */\n      0x60\n        /* \"#utility.yul\":2709:2718   */\n      dup3\n        /* \"#utility.yul\":2705:2723   */\n      add\n        /* \"#utility.yul\":2697:2723   */\n      swap1\n      pop\n        /* \"#utility.yul\":2733:2804   */\n      tag_112\n        /* \"#utility.yul\":2801:2802   */\n      0x00\n        /* \"#utility.yul\":2790:2799   */\n      dup4\n        /* \"#utility.yul\":2786:2803   */\n      add\n        /* \"#utility.yul\":2777:2783   */\n      dup7\n        /* \"#utility.yul\":2733:2804   */\n      tag_87\n      jump\t// in\n    tag_112:\n        /* \"#utility.yul\":2814:2886   */\n      tag_113\n        /* \"#utility.yul\":2882:2884   */\n      0x20\n        /* \"#utility.yul\":2871:2880   */\n      dup4\n        /* \"#utility.yul\":2867:2885   */\n      add\n        /* \"#utility.yul\":2858:2864   */\n      dup6\n        /* \"#utility.yul\":2814:2886   */\n      tag_87\n      jump\t// in\n    tag_113:\n        /* \"#utility.yul\":2896:2968   */\n      tag_114\n        /* \"#utility.yul\":2964:2966   */\n      0x40\n        /* \"#utility.yul\":2953:2962   */\n      dup4\n        /* \"#utility.yul\":2949:2967   */\n      add\n        /* \"#utility.yul\":2940:2946   */\n      dup5\n        /* \"#utility.yul\":2896:2968   */\n      tag_105\n      jump\t// in\n    tag_114:\n        /* \"#utility.yul\":2533:2975   */\n      swap5\n      swap4\n      pop\n      pop\n      pop\n      pop\n      jump\t// out\n        /* \"#utility.yul\":2981:3400   */\n    tag_45:\n        /* \"#utility.yul\":3147:3151   */\n      0x00\n        /* \"#utility.yul\":3185:3187   */\n      0x20\n        /* \"#utility.yul\":3174:3183   */\n      dup3\n        /* \"#utility.yul\":3170:3188   */\n      add\n        /* \"#utility.yul\":3162:3188   */\n      swap1\n      pop\n        /* \"#utility.yul\":3234:3243   */\n      dup2\n        /* \"#utility.yul\":3228:3232   */\n      dup2\n        /* \"#utility.yul\":3224:3244   */\n      sub\n        /* \"#utility.yul\":3220:3221   */\n      0x00\n        /* \"#utility.yul\":3209:3218   */\n      dup4\n        /* \"#utility.yul\":3205:3222   */\n      add\n        /* \"#utility.yul\":3198:3245   */\n      mstore\n        /* \"#utility.yul\":3262:3393   */\n      tag_116\n        /* \"#utility.yul\":3388:3392   */\n      dup2\n        /* \"#utility.yul\":3262:3393   */\n      tag_99\n      jump\t// in\n    tag_116:\n        /* \"#utility.yul\":3254:3393   */\n      swap1\n      pop\n        /* \"#utility.yul\":2981:3400   */\n      swap2\n      swap1\n      pop\n      jump\t// out\n        /* \"#utility.yul\":3406:3628   */\n    tag_12:\n        /* \"#utility.yul\":3499:3503   */\n      0x00\n        /* \"#utility.yul\":3537:3539   */\n      0x20\n        /* \"#utility.yul\":3526:3535   */\n      dup3\n        /* \"#utility.yul\":3522:3540   */\n      add\n        /* \"#utility.yul\":3514:3540   */\n      swap1\n      pop\n        /* \"#utility.yul\":3550:3621   */\n      tag_118\n        /* \"#utility.yul\":3618:3619   */\n      0x00\n        /* \"#utility.yul\":3607:3616   */\n      dup4\n        /* \"#utility.yul\":3603:3620   */\n      add\n        /* \"#utility.yul\":3594:3600   */\n      dup5\n        /* \"#utility.yul\":3550:3621   */\n      tag_105\n      jump\t// in\n    tag_118:\n        /* \"#utility.yul\":3406:3628   */\n      swap3\n      swap2\n      pop\n      pop\n      jump\t// out\n        /* \"#utility.yul\":3715:3813   */\n    tag_94:\n        /* \"#utility.yul\":3766:3772   */\n      0x00\n        /* \"#utility.yul\":3800:3805   */\n      dup2\n        /* \"#utility.yul\":3794:3806   */\n      mload\n        /* \"#utility.yul\":3784:3806   */\n      swap1\n      pop\n        /* \"#utility.yul\":3715:3813   */\n      swap2\n      swap1\n      pop\n      jump\t// out\n        /* \"#utility.yul\":3819:3966   */\n    tag_96:\n        /* \"#utility.yul\":3920:3931   */\n      0x00\n        /* \"#utility.yul\":3957:3960   */\n      dup2\n        /* \"#utility.yul\":3942:3960   */\n      swap1\n      pop\n        /* \"#utility.yul\":3819:3966   */\n      swap3\n      swap2\n      pop\n      pop\n      jump\t// out\n        /* \"#utility.yul\":3972:4141   */\n    tag_102:\n        /* \"#utility.yul\":4056:4067   */\n      0x00\n        /* \"#utility.yul\":4090:4096   */\n      dup3\n        /* \"#utility.yul\":4085:4088   */\n      dup3\n        /* \"#utility.yul\":4078:4097   */\n      mstore\n        /* \"#utility.yul\":4130:4134   */\n      0x20\n        /* \"#utility.yul\":4125:4128   */\n      dup3\n        /* \"#utility.yul\":4121:4135   */\n      add\n        /* \"#utility.yul\":4106:4135   */\n      swap1\n      pop\n        /* \"#utility.yul\":3972:4141   */\n      swap3\n      swap2\n      pop\n      pop\n      jump\t// out\n        /* \"#utility.yul\":4147:4243   */\n    tag_90:\n        /* \"#utility.yul\":4184:4191   */\n      0x00\n        /* \"#utility.yul\":4213:4237   */\n      tag_125\n        /* \"#utility.yul\":4231:4236   */\n      dup3\n        /* \"#utility.yul\":4213:4237   */\n      tag_126\n      jump\t// in\n    tag_125:\n        /* \"#utility.yul\":4202:4237   */\n      swap1\n      pop\n        /* \"#utility.yul\":4147:4243   */\n      swap2\n      swap1\n      pop\n      jump\t// out\n        /* \"#utility.yul\":4249:4375   */\n    tag_126:\n        /* \"#utility.yul\":4286:4293   */\n      0x00\n        /* \"#utility.yul\":4326:4368   */\n      0xffffffffffffffffffffffffffffffffffffffff\n        /* \"#utility.yul\":4319:4324   */\n      dup3\n        /* \"#utility.yul\":4315:4369   */\n      and\n        /* \"#utility.yul\":4304:4369   */\n      swap1\n      pop\n        /* \"#utility.yul\":4249:4375   */\n      swap2\n      swap1\n      pop\n      jump\t// out\n        /* \"#utility.yul\":4381:4458   */\n    tag_108:\n        /* \"#utility.yul\":4418:4425   */\n      0x00\n        /* \"#utility.yul\":4447:4452   */\n      dup2\n        /* \"#utility.yul\":4436:4452   */\n      swap1\n      pop\n        /* \"#utility.yul\":4381:4458   */\n      swap2\n      swap1\n      pop\n      jump\t// out\n        /* \"#utility.yul\":4464:4771   */\n    tag_98:\n        /* \"#utility.yul\":4532:4533   */\n      0x00\n        /* \"#utility.yul\":4542:4655   */\n    tag_130:\n        /* \"#utility.yul\":4556:4562   */\n      dup4\n        /* \"#utility.yul\":4553:4554   */\n      dup2\n        /* \"#utility.yul\":4550:4563   */\n      lt\n        /* \"#utility.yul\":4542:4655   */\n      iszero\n      tag_132\n      jumpi\n        /* \"#utility.yul\":4641:4642   */\n      dup1\n        /* \"#utility.yul\":4636:4639   */\n      dup3\n        /* \"#utility.yul\":4632:4643   */\n      add\n        /* \"#utility.yul\":4626:4644   */\n      mload\n        /* \"#utility.yul\":4622:4623   */\n      dup2\n        /* \"#utility.yul\":4617:4620   */\n      dup5\n        /* \"#utility.yul\":4613:4624   */\n      add\n        /* \"#utility.yul\":4606:4645   */\n      mstore\n        /* \"#utility.yul\":4578:4580   */\n      0x20\n        /* \"#utility.yul\":4575:4576   */\n      dup2\n        /* \"#utility.yul\":4571:4581   */\n      add\n        /* \"#utility.yul\":4566:4581   */\n      swap1\n      pop\n        /* \"#utility.yul\":4542:4655   */\n      jump(tag_130)\n    tag_132:\n        /* \"#utility.yul\":4673:4679   */\n      dup4\n        /* \"#utility.yul\":4670:4671   */\n      dup2\n        /* \"#utility.yul\":4667:4680   */\n      gt\n        /* \"#utility.yul\":4664:4765   */\n      iszero\n      tag_133\n      jumpi\n        /* \"#utility.yul\":4753:4754   */\n      0x00\n        /* \"#utility.yul\":4744:4750   */\n      dup5\n        /* \"#utility.yul\":4739:4742   */\n      dup5\n        /* \"#utility.yul\":4735:4751   */\n      add\n        /* \"#utility.yul\":4728:4755   */\n      mstore\n        /* \"#utility.yul\":4664:4765   */\n    tag_133:\n        /* \"#utility.yul\":4513:4771   */\n      pop\n        /* \"#utility.yul\":4464:4771   */\n      pop\n      pop\n      pop\n      jump\t// out\n        /* \"#utility.yul\":4900:5017   */\n    tag_78:\n        /* \"#utility.yul\":5009:5010   */\n      0x00\n        /* \"#utility.yul\":5006:5007   */\n      dup1\n        /* \"#utility.yul\":4999:5011   */\n      revert\n        /* \"#utility.yul\":5023:5191   */\n    tag_104:\n        /* \"#utility.yul\":5163:5183   */\n      0x5472616e73616374696f6e206661696c65640000000000000000000000000000\n        /* \"#utility.yul\":5159:5160   */\n      0x00\n        /* \"#utility.yul\":5151:5157   */\n      dup3\n        /* \"#utility.yul\":5147:5161   */\n      add\n        /* \"#utility.yul\":5140:5184   */\n      mstore\n        /* \"#utility.yul\":5023:5191   */\n      pop\n      jump\t// out\n        /* \"#utility.yul\":5197:5319   */\n    tag_74:\n        /* \"#utility.yul\":5270:5294   */\n      tag_139\n        /* \"#utility.yul\":5288:5293   */\n      dup2\n        /* \"#utility.yul\":5270:5294   */\n      tag_90\n      jump\t// in\n    tag_139:\n        /* \"#utility.yul\":5263:5268   */\n      dup2\n        /* \"#utility.yul\":5260:5295   */\n      eq\n        /* \"#utility.yul\":5250:5313   */\n      tag_140\n      jumpi\n        /* \"#utility.yul\":5309:5310   */\n      0x00\n        /* \"#utility.yul\":5306:5307   */\n      dup1\n        /* \"#utility.yul\":5299:5311   */\n      revert\n        /* \"#utility.yul\":5250:5313   */\n    tag_140:\n        /* \"#utility.yul\":5197:5319   */\n      pop\n      jump\t// out\n\n    auxdata: 0xa26469706673582212206025336a52e50784fad4a14a59e2adff308899472aef309cdc65b676596e045164736f6c63430008070033\n}\n",
				"bytecode": {
					"linkReferences": {},
					"object": "6080604052600a600155674563918244f40000600255670de0b6b3a764000060035534801561002d57600080fd5b50336000806101000a81548173ffffffffffffffffffffffffffffffffffffffff021916908373ffffffffffffffffffffffffffffffffffffffff1602179055506109888061007d6000396000f3fe608060405234801561001057600080fd5b50600436106100625760003560e01c8063052a76e91461006757806323c4a08e1461008557806369ab66e7146100a157806370d0099b146100bd57806393ea9d5b146100db578063e6350f7c146100f9575b600080fd5b61006f610115565b60405161007c919061085c565b60405180910390f35b61009f600480360381019061009a9190610729565b61011b565b005b6100bb60048036038101906100b691906106e9565b610134565b005b6100c5610299565b6040516100d2919061085c565b60405180910390f35b6100e361029f565b6040516100f0919061085c565b60405180910390f35b610113600480360381019061010e91906106e9565b6102a5565b005b60015481565b610125838361040a565b61012f838261056f565b505050565b60008273ffffffffffffffffffffffffffffffffffffffff1660008054906101000a900473ffffffffffffffffffffffffffffffffffffffff168360015460405160240161018493929190610805565b6040516020818303038152906040527f23b872dd000000000000000000000000000000000000000000000000000000007bffffffffffffffffffffffffffffffffffffffffffffffffffffffff19166020820180517bffffffffffffffffffffffffffffffffffffffffffffffffffffffff838183161783525050505060405161020e91906107ee565b6000604051808303816000865af19150503d806000811461024b576040519150601f19603f3d011682016040523d82523d6000602084013e610250565b606091505b5050905080610294576040517f08c379a000000000000000000000000000000000000000000000000000000000815260040161028b9061083c565b60405180910390fd5b505050565b60025481565b60035481565b60008273ffffffffffffffffffffffffffffffffffffffff1660008054906101000a900473ffffffffffffffffffffffffffffffffffffffff16836003546040516024016102f593929190610805565b6040516020818303038152906040527f23b872dd000000000000000000000000000000000000000000000000000000007bffffffffffffffffffffffffffffffffffffffffffffffffffffffff19166020820180517bffffffffffffffffffffffffffffffffffffffffffffffffffffffff838183161783525050505060405161037f91906107ee565b6000604051808303816000865af19150503d80600081146103bc576040519150601f19603f3d011682016040523d82523d6000602084013e6103c1565b606091505b5050905080610405576040517f08c379a00000000000000000000000000000000000000000000000000000000081526004016103fc9061083c565b60405180910390fd5b505050565b60008273ffffffffffffffffffffffffffffffffffffffff1660008054906101000a900473ffffffffffffffffffffffffffffffffffffffff168360025460405160240161045a93929190610805565b6040516020818303038152906040527f23b872dd000000000000000000000000000000000000000000000000000000007bffffffffffffffffffffffffffffffffffffffffffffffffffffffff19166020820180517bffffffffffffffffffffffffffffffffffffffffffffffffffffffff83818316178352505050506040516104e491906107ee565b6000604051808303816000865af19150503d8060008114610521576040519150601f19603f3d011682016040523d82523d6000602084013e610526565b606091505b505090508061056a576040517f08c379a00000000000000000000000000000000000000000000000000000000081526004016105619061083c565b60405180910390fd5b505050565b60008273ffffffffffffffffffffffffffffffffffffffff1660008054906101000a900473ffffffffffffffffffffffffffffffffffffffff16836002546040516024016105bf93929190610805565b6040516020818303038152906040527f23b872dd000000000000000000000000000000000000000000000000000000007bffffffffffffffffffffffffffffffffffffffffffffffffffffffff19166020820180517bffffffffffffffffffffffffffffffffffffffffffffffffffffffff838183161783525050505060405161064991906107ee565b6000604051808303816000865af19150503d8060008114610686576040519150601f19603f3d011682016040523d82523d6000602084013e61068b565b606091505b50509050806106cf576040517f08c379a00000000000000000000000000000000000000000000000000000000081526004016106c69061083c565b60405180910390fd5b505050565b6000813590506106e38161093b565b92915050565b60008060408385031215610700576106ff61090d565b5b600061070e858286016106d4565b925050602061071f858286016106d4565b9150509250929050565b6000806000606084860312156107425761074161090d565b5b6000610750868287016106d4565b9350506020610761868287016106d4565b9250506040610772868287016106d4565b9150509250925092565b6107858161089e565b82525050565b600061079682610877565b6107a08185610882565b93506107b08185602086016108da565b80840191505092915050565b60006107c960128361088d565b91506107d482610912565b602082019050919050565b6107e8816108d0565b82525050565b60006107fa828461078b565b915081905092915050565b600060608201905061081a600083018661077c565b610827602083018561077c565b61083460408301846107df565b949350505050565b60006020820190508181036000830152610855816107bc565b9050919050565b600060208201905061087160008301846107df565b92915050565b600081519050919050565b600081905092915050565b600082825260208201905092915050565b60006108a9826108b0565b9050919050565b600073ffffffffffffffffffffffffffffffffffffffff82169050919050565b6000819050919050565b60005b838110156108f85780820151818401526020810190506108dd565b83811115610907576000848401525b50505050565b600080fd5b7f5472616e73616374696f6e206661696c65640000000000000000000000000000600082015250565b6109448161089e565b811461094f57600080fd5b5056fea26469706673582212206025336a52e50784fad4a14a59e2adff308899472aef309cdc65b676596e045164736f6c63430008070033",
					"opcodes": "PUSH1 0x80 PUSH1 0x40 MSTORE PUSH1 0xA PUSH1 0x1 SSTORE PUSH8 0x4563918244F40000 PUSH1 0x2 SSTORE PUSH8 0xDE0B6B3A7640000 PUSH1 0x3 SSTORE CALLVALUE DUP1 ISZERO PUSH2 0x2D JUMPI PUSH1 0x0 DUP1 REVERT JUMPDEST POP CALLER PUSH1 0x0 DUP1 PUSH2 0x100 EXP DUP2 SLOAD DUP2 PUSH20 0xFFFFFFFFFFFFFFFFFFFFFFFFFFFFFFFFFFFFFFFF MUL NOT AND SWAP1 DUP4 PUSH20 0xFFFFFFFFFFFFFFFFFFFFFFFFFFFFFFFFFFFFFFFF AND MUL OR SWAP1 SSTORE POP PUSH2 0x988 DUP1 PUSH2 0x7D PUSH1 0x0 CODECOPY PUSH1 0x0 RETURN INVALID PUSH1 0x80 PUSH1 0x40 MSTORE CALLVALUE DUP1 ISZERO PUSH2 0x10 JUMPI PUSH1 0x0 DUP1 REVERT JUMPDEST POP PUSH1 0x4 CALLDATASIZE LT PUSH2 0x62 JUMPI PUSH1 0x0 CALLDATALOAD PUSH1 0xE0 SHR DUP1 PUSH4 0x52A76E9 EQ PUSH2 0x67 JUMPI DUP1 PUSH4 0x23C4A08E EQ PUSH2 0x85 JUMPI DUP1 PUSH4 0x69AB66E7 EQ PUSH2 0xA1 JUMPI DUP1 PUSH4 0x70D0099B EQ PUSH2 0xBD JUMPI DUP1 PUSH4 0x93EA9D5B EQ PUSH2 0xDB JUMPI DUP1 PUSH4 0xE6350F7C EQ PUSH2 0xF9 JUMPI JUMPDEST PUSH1 0x0 DUP1 REVERT JUMPDEST PUSH2 0x6F PUSH2 0x115 JUMP JUMPDEST PUSH1 0x40 MLOAD PUSH2 0x7C SWAP2 SWAP1 PUSH2 0x85C JUMP JUMPDEST PUSH1 0x40 MLOAD DUP1 SWAP2 SUB SWAP1 RETURN JUMPDEST PUSH2 0x9F PUSH1 0x4 DUP1 CALLDATASIZE SUB DUP2 ADD SWAP1 PUSH2 0x9A SWAP2 SWAP1 PUSH2 0x729 JUMP JUMPDEST PUSH2 0x11B JUMP JUMPDEST STOP JUMPDEST PUSH2 0xBB PUSH1 0x4 DUP1 CALLDATASIZE SUB DUP2 ADD SWAP1 PUSH2 0xB6 SWAP2 SWAP1 PUSH2 0x6E9 JUMP JUMPDEST PUSH2 0x134 JUMP JUMPDEST STOP JUMPDEST PUSH2 0xC5 PUSH2 0x299 JUMP JUMPDEST PUSH1 0x40 MLOAD PUSH2 0xD2 SWAP2 SWAP1 PUSH2 0x85C JUMP JUMPDEST PUSH1 0x40 MLOAD DUP1 SWAP2 SUB SWAP1 RETURN JUMPDEST PUSH2 0xE3 PUSH2 0x29F JUMP JUMPDEST PUSH1 0x40 MLOAD PUSH2 0xF0 SWAP2 SWAP1 PUSH2 0x85C JUMP JUMPDEST PUSH1 0x40 MLOAD DUP1 SWAP2 SUB SWAP1 RETURN JUMPDEST PUSH2 0x113 PUSH1 0x4 DUP1 CALLDATASIZE SUB DUP2 ADD SWAP1 PUSH2 0x10E SWAP2 SWAP1 PUSH2 0x6E9 JUMP JUMPDEST PUSH2 0x2A5 JUMP JUMPDEST STOP JUMPDEST PUSH1 0x1 SLOAD DUP2 JUMP JUMPDEST PUSH2 0x125 DUP4 DUP4 PUSH2 0x40A JUMP JUMPDEST PUSH2 0x12F DUP4 DUP3 PUSH2 0x56F JUMP JUMPDEST POP POP POP JUMP JUMPDEST PUSH1 0x0 DUP3 PUSH20 0xFFFFFFFFFFFFFFFFFFFFFFFFFFFFFFFFFFFFFFFF AND PUSH1 0x0 DUP1 SLOAD SWAP1 PUSH2 0x100 EXP SWAP1 DIV PUSH20 0xFFFFFFFFFFFFFFFFFFFFFFFFFFFFFFFFFFFFFFFF AND DUP4 PUSH1 0x1 SLOAD PUSH1 0x40 MLOAD PUSH1 0x24 ADD PUSH2 0x184 SWAP4 SWAP3 SWAP2 SWAP1 PUSH2 0x805 JUMP JUMPDEST PUSH1 0x40 MLOAD PUSH1 0x20 DUP2 DUP4 SUB SUB DUP2 MSTORE SWAP1 PUSH1 0x40 MSTORE PUSH32 0x23B872DD00000000000000000000000000000000000000000000000000000000 PUSH28 0xFFFFFFFFFFFFFFFFFFFFFFFFFFFFFFFFFFFFFFFFFFFFFFFFFFFFFFFF NOT AND PUSH1 0x20 DUP3 ADD DUP1 MLOAD PUSH28 0xFFFFFFFFFFFFFFFFFFFFFFFFFFFFFFFFFFFFFFFFFFFFFFFFFFFFFFFF DUP4 DUP2 DUP4 AND OR DUP4 MSTORE POP POP POP POP PUSH1 0x40 MLOAD PUSH2 0x20E SWAP2 SWAP1 PUSH2 0x7EE JUMP JUMPDEST PUSH1 0x0 PUSH1 0x40 MLOAD DUP1 DUP4 SUB DUP2 PUSH1 0x0 DUP7 GAS CALL SWAP2 POP POP RETURNDATASIZE DUP1 PUSH1 0x0 DUP2 EQ PUSH2 0x24B JUMPI PUSH1 0x40 MLOAD SWAP2 POP PUSH1 0x1F NOT PUSH1 0x3F RETURNDATASIZE ADD AND DUP3 ADD PUSH1 0x40 MSTORE RETURNDATASIZE DUP3 MSTORE RETURNDATASIZE PUSH1 0x0 PUSH1 0x20 DUP5 ADD RETURNDATACOPY PUSH2 0x250 JUMP JUMPDEST PUSH1 0x60 SWAP2 POP JUMPDEST POP POP SWAP1 POP DUP1 PUSH2 0x294 JUMPI PUSH1 0x40 MLOAD PUSH32 0x8C379A000000000000000000000000000000000000000000000000000000000 DUP2 MSTORE PUSH1 0x4 ADD PUSH2 0x28B SWAP1 PUSH2 0x83C JUMP JUMPDEST PUSH1 0x40 MLOAD DUP1 SWAP2 SUB SWAP1 REVERT JUMPDEST POP POP POP JUMP JUMPDEST PUSH1 0x2 SLOAD DUP2 JUMP JUMPDEST PUSH1 0x3 SLOAD DUP2 JUMP JUMPDEST PUSH1 0x0 DUP3 PUSH20 0xFFFFFFFFFFFFFFFFFFFFFFFFFFFFFFFFFFFFFFFF AND PUSH1 0x0 DUP1 SLOAD SWAP1 PUSH2 0x100 EXP SWAP1 DIV PUSH20 0xFFFFFFFFFFFFFFFFFFFFFFFFFFFFFFFFFFFFFFFF AND DUP4 PUSH1 0x3 SLOAD PUSH1 0x40 MLOAD PUSH1 0x24 ADD PUSH2 0x2F5 SWAP4 SWAP3 SWAP2 SWAP1 PUSH2 0x805 JUMP JUMPDEST PUSH1 0x40 MLOAD PUSH1 0x20 DUP2 DUP4 SUB SUB DUP2 MSTORE SWAP1 PUSH1 0x40 MSTORE PUSH32 0x23B872DD00000000000000000000000000000000000000000000000000000000 PUSH28 0xFFFFFFFFFFFFFFFFFFFFFFFFFFFFFFFFFFFFFFFFFFFFFFFFFFFFFFFF NOT AND PUSH1 0x20 DUP3 ADD DUP1 MLOAD PUSH28 0xFFFFFFFFFFFFFFFFFFFFFFFFFFFFFFFFFFFFFFFFFFFFFFFFFFFFFFFF DUP4 DUP2 DUP4 AND OR DUP4 MSTORE POP POP POP POP PUSH1 0x40 MLOAD PUSH2 0x37F SWAP2 SWAP1 PUSH2 0x7EE JUMP JUMPDEST PUSH1 0x0 PUSH1 0x40 MLOAD DUP1 DUP4 SUB DUP2 PUSH1 0x0 DUP7 GAS CALL SWAP2 POP POP RETURNDATASIZE DUP1 PUSH1 0x0 DUP2 EQ PUSH2 0x3BC JUMPI PUSH1 0x40 MLOAD SWAP2 POP PUSH1 0x1F NOT PUSH1 0x3F RETURNDATASIZE ADD AND DUP3 ADD PUSH1 0x40 MSTORE RETURNDATASIZE DUP3 MSTORE RETURNDATASIZE PUSH1 0x0 PUSH1 0x20 DUP5 ADD RETURNDATACOPY PUSH2 0x3C1 JUMP JUMPDEST PUSH1 0x60 SWAP2 POP JUMPDEST POP POP SWAP1 POP DUP1 PUSH2 0x405 JUMPI PUSH1 0x40 MLOAD PUSH32 0x8C379A000000000000000000000000000000000000000000000000000000000 DUP2 MSTORE PUSH1 0x4 ADD PUSH2 0x3FC SWAP1 PUSH2 0x83C JUMP JUMPDEST PUSH1 0x40 MLOAD DUP1 SWAP2 SUB SWAP1 REVERT JUMPDEST POP POP POP JUMP JUMPDEST PUSH1 0x0 DUP3 PUSH20 0xFFFFFFFFFFFFFFFFFFFFFFFFFFFFFFFFFFFFFFFF AND PUSH1 0x0 DUP1 SLOAD SWAP1 PUSH2 0x100 EXP SWAP1 DIV PUSH20 0xFFFFFFFFFFFFFFFFFFFFFFFFFFFFFFFFFFFFFFFF AND DUP4 PUSH1 0x2 SLOAD PUSH1 0x40 MLOAD PUSH1 0x24 ADD PUSH2 0x45A SWAP4 SWAP3 SWAP2 SWAP1 PUSH2 0x805 JUMP JUMPDEST PUSH1 0x40 MLOAD PUSH1 0x20 DUP2 DUP4 SUB SUB DUP2 MSTORE SWAP1 PUSH1 0x40 MSTORE PUSH32 0x23B872DD00000000000000000000000000000000000000000000000000000000 PUSH28 0xFFFFFFFFFFFFFFFFFFFFFFFFFFFFFFFFFFFFFFFFFFFFFFFFFFFFFFFF NOT AND PUSH1 0x20 DUP3 ADD DUP1 MLOAD PUSH28 0xFFFFFFFFFFFFFFFFFFFFFFFFFFFFFFFFFFFFFFFFFFFFFFFFFFFFFFFF DUP4 DUP2 DUP4 AND OR DUP4 MSTORE POP POP POP POP PUSH1 0x40 MLOAD PUSH2 0x4E4 SWAP2 SWAP1 PUSH2 0x7EE JUMP JUMPDEST PUSH1 0x0 PUSH1 0x40 MLOAD DUP1 DUP4 SUB DUP2 PUSH1 0x0 DUP7 GAS CALL SWAP2 POP POP RETURNDATASIZE DUP1 PUSH1 0x0 DUP2 EQ PUSH2 0x521 JUMPI PUSH1 0x40 MLOAD SWAP2 POP PUSH1 0x1F NOT PUSH1 0x3F RETURNDATASIZE ADD AND DUP3 ADD PUSH1 0x40 MSTORE RETURNDATASIZE DUP3 MSTORE RETURNDATASIZE PUSH1 0x0 PUSH1 0x20 DUP5 ADD RETURNDATACOPY PUSH2 0x526 JUMP JUMPDEST PUSH1 0x60 SWAP2 POP JUMPDEST POP POP SWAP1 POP DUP1 PUSH2 0x56A JUMPI PUSH1 0x40 MLOAD PUSH32 0x8C379A000000000000000000000000000000000000000000000000000000000 DUP2 MSTORE PUSH1 0x4 ADD PUSH2 0x561 SWAP1 PUSH2 0x83C JUMP JUMPDEST PUSH1 0x40 MLOAD DUP1 SWAP2 SUB SWAP1 REVERT JUMPDEST POP POP POP JUMP JUMPDEST PUSH1 0x0 DUP3 PUSH20 0xFFFFFFFFFFFFFFFFFFFFFFFFFFFFFFFFFFFFFFFF AND PUSH1 0x0 DUP1 SLOAD SWAP1 PUSH2 0x100 EXP SWAP1 DIV PUSH20 0xFFFFFFFFFFFFFFFFFFFFFFFFFFFFFFFFFFFFFFFF AND DUP4 PUSH1 0x2 SLOAD PUSH1 0x40 MLOAD PUSH1 0x24 ADD PUSH2 0x5BF SWAP4 SWAP3 SWAP2 SWAP1 PUSH2 0x805 JUMP JUMPDEST PUSH1 0x40 MLOAD PUSH1 0x20 DUP2 DUP4 SUB SUB DUP2 MSTORE SWAP1 PUSH1 0x40 MSTORE PUSH32 0x23B872DD00000000000000000000000000000000000000000000000000000000 PUSH28 0xFFFFFFFFFFFFFFFFFFFFFFFFFFFFFFFFFFFFFFFFFFFFFFFFFFFFFFFF NOT AND PUSH1 0x20 DUP3 ADD DUP1 MLOAD PUSH28 0xFFFFFFFFFFFFFFFFFFFFFFFFFFFFFFFFFFFFFFFFFFFFFFFFFFFFFFFF DUP4 DUP2 DUP4 AND OR DUP4 MSTORE POP POP POP POP PUSH1 0x40 MLOAD PUSH2 0x649 SWAP2 SWAP1 PUSH2 0x7EE JUMP JUMPDEST PUSH1 0x0 PUSH1 0x40 MLOAD DUP1 DUP4 SUB DUP2 PUSH1 0x0 DUP7 GAS CALL SWAP2 POP POP RETURNDATASIZE DUP1 PUSH1 0x0 DUP2 EQ PUSH2 0x686 JUMPI PUSH1 0x40 MLOAD SWAP2 POP PUSH1 0x1F NOT PUSH1 0x3F RETURNDATASIZE ADD AND DUP3 ADD PUSH1 0x40 MSTORE RETURNDATASIZE DUP3 MSTORE RETURNDATASIZE PUSH1 0x0 PUSH1 0x20 DUP5 ADD RETURNDATACOPY PUSH2 0x68B JUMP JUMPDEST PUSH1 0x60 SWAP2 POP JUMPDEST POP POP SWAP1 POP DUP1 PUSH2 0x6CF JUMPI PUSH1 0x40 MLOAD PUSH32 0x8C379A000000000000000000000000000000000000000000000000000000000 DUP2 MSTORE PUSH1 0x4 ADD PUSH2 0x6C6 SWAP1 PUSH2 0x83C JUMP JUMPDEST PUSH1 0x40 MLOAD DUP1 SWAP2 SUB SWAP1 REVERT JUMPDEST POP POP POP JUMP JUMPDEST PUSH1 0x0 DUP2 CALLDATALOAD SWAP1 POP PUSH2 0x6E3 DUP2 PUSH2 0x93B JUMP JUMPDEST SWAP3 SWAP2 POP POP JUMP JUMPDEST PUSH1 0x0 DUP1 PUSH1 0x40 DUP4 DUP6 SUB SLT ISZERO PUSH2 0x700 JUMPI PUSH2 0x6FF PUSH2 0x90D JUMP JUMPDEST JUMPDEST PUSH1 0x0 PUSH2 0x70E DUP6 DUP3 DUP7 ADD PUSH2 0x6D4 JUMP JUMPDEST SWAP3 POP POP PUSH1 0x20 PUSH2 0x71F DUP6 DUP3 DUP7 ADD PUSH2 0x6D4 JUMP JUMPDEST SWAP2 POP POP SWAP3 POP SWAP3 SWAP1 POP JUMP JUMPDEST PUSH1 0x0 DUP1 PUSH1 0x0 PUSH1 0x60 DUP5 DUP7 SUB SLT ISZERO PUSH2 0x742 JUMPI PUSH2 0x741 PUSH2 0x90D JUMP JUMPDEST JUMPDEST PUSH1 0x0 PUSH2 0x750 DUP7 DUP3 DUP8 ADD PUSH2 0x6D4 JUMP JUMPDEST SWAP4 POP POP PUSH1 0x20 PUSH2 0x761 DUP7 DUP3 DUP8 ADD PUSH2 0x6D4 JUMP JUMPDEST SWAP3 POP POP PUSH1 0x40 PUSH2 0x772 DUP7 DUP3 DUP8 ADD PUSH2 0x6D4 JUMP JUMPDEST SWAP2 POP POP SWAP3 POP SWAP3 POP SWAP3 JUMP JUMPDEST PUSH2 0x785 DUP2 PUSH2 0x89E JUMP JUMPDEST DUP3 MSTORE POP POP JUMP JUMPDEST PUSH1 0x0 PUSH2 0x796 DUP3 PUSH2 0x877 JUMP JUMPDEST PUSH2 0x7A0 DUP2 DUP6 PUSH2 0x882 JUMP JUMPDEST SWAP4 POP PUSH2 0x7B0 DUP2 DUP6 PUSH1 0x20 DUP7 ADD PUSH2 0x8DA JUMP JUMPDEST DUP1 DUP5 ADD SWAP2 POP POP SWAP3 SWAP2 POP POP JUMP JUMPDEST PUSH1 0x0 PUSH2 0x7C9 PUSH1 0x12 DUP4 PUSH2 0x88D JUMP JUMPDEST SWAP2 POP PUSH2 0x7D4 DUP3 PUSH2 0x912 JUMP JUMPDEST PUSH1 0x20 DUP3 ADD SWAP1 POP SWAP2 SWAP1 POP JUMP JUMPDEST PUSH2 0x7E8 DUP2 PUSH2 0x8D0 JUMP JUMPDEST DUP3 MSTORE POP POP JUMP JUMPDEST PUSH1 0x0 PUSH2 0x7FA DUP3 DUP5 PUSH2 0x78B JUMP JUMPDEST SWAP2 POP DUP2 SWAP1 POP SWAP3 SWAP2 POP POP JUMP JUMPDEST PUSH1 0x0 PUSH1 0x60 DUP3 ADD SWAP1 POP PUSH2 0x81A PUSH1 0x0 DUP4 ADD DUP7 PUSH2 0x77C JUMP JUMPDEST PUSH2 0x827 PUSH1 0x20 DUP4 ADD DUP6 PUSH2 0x77C JUMP JUMPDEST PUSH2 0x834 PUSH1 0x40 DUP4 ADD DUP5 PUSH2 0x7DF JUMP JUMPDEST SWAP5 SWAP4 POP POP POP POP JUMP JUMPDEST PUSH1 0x0 PUSH1 0x20 DUP3 ADD SWAP1 POP DUP2 DUP2 SUB PUSH1 0x0 DUP4 ADD MSTORE PUSH2 0x855 DUP2 PUSH2 0x7BC JUMP JUMPDEST SWAP1 POP SWAP2 SWAP1 POP JUMP JUMPDEST PUSH1 0x0 PUSH1 0x20 DUP3 ADD SWAP1 POP PUSH2 0x871 PUSH1 0x0 DUP4 ADD DUP5 PUSH2 0x7DF JUMP JUMPDEST SWAP3 SWAP2 POP POP JUMP JUMPDEST PUSH1 0x0 DUP2 MLOAD SWAP1 POP SWAP2 SWAP1 POP JUMP JUMPDEST PUSH1 0x0 DUP2 SWAP1 POP SWAP3 SWAP2 POP POP JUMP JUMPDEST PUSH1 0x0 DUP3 DUP3 MSTORE PUSH1 0x20 DUP3 ADD SWAP1 POP SWAP3 SWAP2 POP POP JUMP JUMPDEST PUSH1 0x0 PUSH2 0x8A9 DUP3 PUSH2 0x8B0 JUMP JUMPDEST SWAP1 POP SWAP2 SWAP1 POP JUMP JUMPDEST PUSH1 0x0 PUSH20 0xFFFFFFFFFFFFFFFFFFFFFFFFFFFFFFFFFFFFFFFF DUP3 AND SWAP1 POP SWAP2 SWAP1 POP JUMP JUMPDEST PUSH1 0x0 DUP2 SWAP1 POP SWAP2 SWAP1 POP JUMP JUMPDEST PUSH1 0x0 JUMPDEST DUP4 DUP2 LT ISZERO PUSH2 0x8F8 JUMPI DUP1 DUP3 ADD MLOAD DUP2 DUP5 ADD MSTORE PUSH1 0x20 DUP2 ADD SWAP1 POP PUSH2 0x8DD JUMP JUMPDEST DUP4 DUP2 GT ISZERO PUSH2 0x907 JUMPI PUSH1 0x0 DUP5 DUP5 ADD MSTORE JUMPDEST POP POP POP POP JUMP JUMPDEST PUSH1 0x0 DUP1 REVERT JUMPDEST PUSH32 0x5472616E73616374696F6E206661696C65640000000000000000000000000000 PUSH1 0x0 DUP3 ADD MSTORE POP JUMP JUMPDEST PUSH2 0x944 DUP2 PUSH2 0x89E JUMP JUMPDEST DUP2 EQ PUSH2 0x94F JUMPI PUSH1 0x0 DUP1 REVERT JUMPDEST POP JUMP INVALID LOG2 PUSH5 0x6970667358 0x22 SLT KECCAK256 PUSH1 0x25 CALLER PUSH11 0x52E50784FAD4A14A59E2AD SELFDESTRUCT ADDRESS DUP9 SWAP10 SELFBALANCE 0x2A 0xEF ADDRESS SWAP13 0xDC PUSH6 0xB676596E0451 PUSH5 0x736F6C6343 STOP ADDMOD SMOD STOP CALLER "
				},
				"gasEstimates": {
					"creation": {
						"codeDepositCost": "488000",
						"executionCost": "91108",
						"totalCost": "579108"
					},
					"external": {
						"completedStudyBonus()": "2495",
						"completedStudyReward(address,address)": "infinite",
						"firstCollectionBonus()": "2407",
						"firstCollectionReward(address,address)": "infinite",
						"invitedFriendBonus()": "2473",
						"invitedFriendReward(address,address,address)": "infinite"
					},
					"internal": {
						"invitedFriendNewUser(address,address)": "infinite",
						"invitedFriendUser(address,address)": "infinite"
					}
				},
				"methodIdentifiers": {
					"completedStudyBonus()": "93ea9d5b",
					"completedStudyReward(address,address)": "e6350f7c",
					"firstCollectionBonus()": "052a76e9",
					"firstCollectionReward(address,address)": "69ab66e7",
					"invitedFriendBonus()": "70d0099b",
					"invitedFriendReward(address,address,address)": "23c4a08e"
				}
			},
			"storageLayout": {
				"storage": [
					{
						"astId": 3,
						"contract": "contracts/CallRewards.sol:CallRewards",
						"label": "thisOwner",
						"offset": 0,
						"slot": "0",
						"type": "t_address"
					},
					{
						"astId": 6,
						"contract": "contracts/CallRewards.sol:CallRewards",
						"label": "firstCollectionBonus",
						"offset": 0,
						"slot": "1",
						"type": "t_uint256"
					},
					{
						"astId": 9,
						"contract": "contracts/CallRewards.sol:CallRewards",
						"label": "invitedFriendBonus",
						"offset": 0,
						"slot": "2",
						"type": "t_uint256"
					},
					{
						"astId": 12,
						"contract": "contracts/CallRewards.sol:CallRewards",
						"label": "completedStudyBonus",
						"offset": 0,
						"slot": "3",
						"type": "t_uint256"
					}
				],
				"types": {
					"t_address": {
						"encoding": "inplace",
						"label": "address",
						"numberOfBytes": "20"
					},
					"t_uint256": {
						"encoding": "inplace",
						"label": "uint256",
						"numberOfBytes": "32"
					}
				}
			},
			"userdoc": {
				"kind": "user",
				"methods": {},
				"version": 1
			}
		}
	}
}