{
  "_format": "hh-sol-artifact-1",
  "contractName": "MarketPlace",
  "sourceName": "contracts/MarketPlace.sol",
  "abi": [
    {
      "inputs": [
        {
          "internalType": "contract IERC20",
          "name": "_token",
          "type": "address"
        }
      ],
      "stateMutability": "nonpayable",
      "type": "constructor"
    },
    {
      "anonymous": false,
      "inputs": [
        {
          "indexed": true,
          "internalType": "address",
          "name": "buyer",
          "type": "address"
        },
        {
          "indexed": false,
          "internalType": "uint256",
          "name": "amount",
          "type": "uint256"
        }
      ],
      "name": "Bought",
      "type": "event"
    },
    {
      "anonymous": false,
      "inputs": [
        {
          "indexed": true,
          "internalType": "address",
          "name": "seller",
          "type": "address"
        },
        {
          "indexed": false,
          "internalType": "uint256",
          "name": "amount",
          "type": "uint256"
        }
      ],
      "name": "Sell",
      "type": "event"
    },
    {
      "inputs": [],
      "name": "buy",
      "outputs": [],
      "stateMutability": "payable",
      "type": "function"
    },
    {
      "inputs": [],
      "name": "marketBalance",
      "outputs": [
        {
          "internalType": "uint256",
          "name": "",
          "type": "uint256"
        }
      ],
      "stateMutability": "view",
      "type": "function"
    },
    {
      "inputs": [
        {
          "internalType": "uint256",
          "name": "amount",
          "type": "uint256"
        }
      ],
      "name": "sell",
      "outputs": [],
      "stateMutability": "nonpayable",
      "type": "function"
    },
    {
      "inputs": [],
      "name": "thisAddr",
      "outputs": [
        {
          "internalType": "address",
          "name": "",
          "type": "address"
        }
      ],
      "stateMutability": "view",
      "type": "function"
    },
    {
      "inputs": [],
      "name": "token",
      "outputs": [
        {
          "internalType": "contract IERC20",
          "name": "",
          "type": "address"
        }
      ],
      "stateMutability": "view",
      "type": "function"
    },
    {
      "inputs": [
        {
          "internalType": "uint256",
          "name": "amount",
          "type": "uint256"
        }
      ],
      "name": "withdraw",
      "outputs": [],
      "stateMutability": "nonpayable",
      "type": "function"
    }
  ],
  "bytecode": "0x608060405230600260006101000a81548173ffffffffffffffffffffffffffffffffffffffff021916908373ffffffffffffffffffffffffffffffffffffffff1602179055503480156200005257600080fd5b5060405162000fb938038062000fb983398181016040528101906200007891906200017e565b806000806101000a81548173ffffffffffffffffffffffffffffffffffffffff021916908373ffffffffffffffffffffffffffffffffffffffff16021790555033600160006101000a81548173ffffffffffffffffffffffffffffffffffffffff021916908373ffffffffffffffffffffffffffffffffffffffff16021790555050620001b0565b600080fd5b600073ffffffffffffffffffffffffffffffffffffffff82169050919050565b6000620001328262000105565b9050919050565b6000620001468262000125565b9050919050565b620001588162000139565b81146200016457600080fd5b50565b60008151905062000178816200014d565b92915050565b60006020828403121562000197576200019662000100565b5b6000620001a78482850162000167565b91505092915050565b610df980620001c06000396000f3fe6080604052600436106100555760003560e01c80632e1a7d4d1461005a578063a6f2ae3a14610083578063d9ef58a51461008d578063e4849b32146100b8578063fc0c546a146100e1578063fca02c211461010c575b600080fd5b34801561006657600080fd5b50610081600480360381019061007c9190610849565b610137565b005b61008b61026d565b005b34801561009957600080fd5b506100a26104c0565b6040516100af91906108b7565b60405180910390f35b3480156100c457600080fd5b506100df60048036038101906100da9190610849565b6104e6565b005b3480156100ed57600080fd5b506100f661079a565b6040516101039190610931565b60405180910390f35b34801561011857600080fd5b506101216107be565b60405161012e919061095b565b60405180910390f35b600160009054906101000a900473ffffffffffffffffffffffffffffffffffffffff1673ffffffffffffffffffffffffffffffffffffffff163373ffffffffffffffffffffffffffffffffffffffff16146101c7576040517f08c379a00000000000000000000000000000000000000000000000000000000081526004016101be906109d3565b60405180910390fd5b6101cf6107be565b811115610211576040517f08c379a000000000000000000000000000000000000000000000000000000000815260040161020890610a3f565b60405180910390fd5b3373ffffffffffffffffffffffffffffffffffffffff166108fc6102336107ff565b8361023e9190610a8e565b9081150290604051600060405180830381858888f19350505050158015610269573d6000803e3d6000fd5b5050565b6102756107ff565b3410156102b7576040517f08c379a00000000000000000000000000000000000000000000000000000000081526004016102ae90610b34565b60405180910390fd5b60008060009054906101000a900473ffffffffffffffffffffffffffffffffffffffff1673ffffffffffffffffffffffffffffffffffffffff166370a08231600260009054906101000a900473ffffffffffffffffffffffffffffffffffffffff166040518263ffffffff1660e01b815260040161033591906108b7565b60206040518083038186803b15801561034d57600080fd5b505afa158015610361573d6000803e3d6000fd5b505050506040513d601f19601f820116820180604052508101906103859190610b69565b905060006103916107ff565b3461039c9190610bc5565b9050818111156103e1576040517f08c379a00000000000000000000000000000000000000000000000000000000081526004016103d890610c42565b60405180910390fd5b60008054906101000a900473ffffffffffffffffffffffffffffffffffffffff1673ffffffffffffffffffffffffffffffffffffffff1663a9059cbb33836040518363ffffffff1660e01b815260040161043c929190610c62565b600060405180830381600087803b15801561045657600080fd5b505af115801561046a573d6000803e3d6000fd5b505050503373ffffffffffffffffffffffffffffffffffffffff167fc55650ccda1011e1cdc769b1fbf546ebb8c97800b6072b49e06cd560305b1d67826040516104b4919061095b565b60405180910390a25050565b600260009054906101000a900473ffffffffffffffffffffffffffffffffffffffff1681565b60008111610529576040517f08c379a000000000000000000000000000000000000000000000000000000000815260040161052090610cd7565b60405180910390fd5b60008060009054906101000a900473ffffffffffffffffffffffffffffffffffffffff1673ffffffffffffffffffffffffffffffffffffffff1663dd62ed3e33600260009054906101000a900473ffffffffffffffffffffffffffffffffffffffff166040518363ffffffff1660e01b81526004016105a9929190610cf7565b60206040518083038186803b1580156105c157600080fd5b505afa1580156105d5573d6000803e3d6000fd5b505050506040513d601f19601f820116820180604052508101906105f99190610b69565b90508181101561063e576040517f08c379a000000000000000000000000000000000000000000000000000000000815260040161063590610d6c565b60405180910390fd5b60008054906101000a900473ffffffffffffffffffffffffffffffffffffffff1673ffffffffffffffffffffffffffffffffffffffff166323b872dd33600260009054906101000a900473ffffffffffffffffffffffffffffffffffffffff16856040518463ffffffff1660e01b81526004016106bd93929190610d8c565b600060405180830381600087803b1580156106d757600080fd5b505af11580156106eb573d6000803e3d6000fd5b505050503373ffffffffffffffffffffffffffffffffffffffff166108fc6107116107ff565b8461071c9190610a8e565b9081150290604051600060405180830381858888f19350505050158015610747573d6000803e3d6000fd5b503373ffffffffffffffffffffffffffffffffffffffff167f5e5e995ce3133561afceaa51a9a154d5db228cd7525d34df5185582c18d3df098360405161078e919061095b565b60405180910390a25050565b60008054906101000a900473ffffffffffffffffffffffffffffffffffffffff1681565b6000600260009054906101000a900473ffffffffffffffffffffffffffffffffffffffff1673ffffffffffffffffffffffffffffffffffffffff1631905090565b600066038d7ea4c68000905090565b600080fd5b6000819050919050565b61082681610813565b811461083157600080fd5b50565b6000813590506108438161081d565b92915050565b60006020828403121561085f5761085e61080e565b5b600061086d84828501610834565b91505092915050565b600073ffffffffffffffffffffffffffffffffffffffff82169050919050565b60006108a182610876565b9050919050565b6108b181610896565b82525050565b60006020820190506108cc60008301846108a8565b92915050565b6000819050919050565b60006108f76108f26108ed84610876565b6108d2565b610876565b9050919050565b6000610909826108dc565b9050919050565b600061091b826108fe565b9050919050565b61092b81610910565b82525050565b60006020820190506109466000830184610922565b92915050565b61095581610813565b82525050565b6000602082019050610970600083018461094c565b92915050565b600082825260208201905092915050565b7f4f6e6c79206f776e657221000000000000000000000000000000000000000000600082015250565b60006109bd600b83610976565b91506109c882610987565b602082019050919050565b600060208201905081810360008301526109ec816109b0565b9050919050565b7f4e6f7420656e6f7567682066756e647321000000000000000000000000000000600082015250565b6000610a29601183610976565b9150610a34826109f3565b602082019050919050565b60006020820190508181036000830152610a5881610a1c565b9050919050565b7f4e487b7100000000000000000000000000000000000000000000000000000000600052601160045260246000fd5b6000610a9982610813565b9150610aa483610813565b9250817fffffffffffffffffffffffffffffffffffffffffffffffffffffffffffffffff0483118215151615610add57610adc610a5f565b5b828202905092915050565b7f496e636f72726563742073756d00000000000000000000000000000000000000600082015250565b6000610b1e600d83610976565b9150610b2982610ae8565b602082019050919050565b60006020820190508181036000830152610b4d81610b11565b9050919050565b600081519050610b638161081d565b92915050565b600060208284031215610b7f57610b7e61080e565b5b6000610b8d84828501610b54565b91505092915050565b7f4e487b7100000000000000000000000000000000000000000000000000000000600052601260045260246000fd5b6000610bd082610813565b9150610bdb83610813565b925082610beb57610bea610b96565b5b828204905092915050565b7f4e6f7420656e6f75746820746f6b656e73210000000000000000000000000000600082015250565b6000610c2c601283610976565b9150610c3782610bf6565b602082019050919050565b60006020820190508181036000830152610c5b81610c1f565b9050919050565b6000604082019050610c7760008301856108a8565b610c84602083018461094c565b9392505050565b7f546f6b656e73206d7573742062652067726561746572207468616e2030000000600082015250565b6000610cc1601d83610976565b9150610ccc82610c8b565b602082019050919050565b60006020820190508181036000830152610cf081610cb4565b9050919050565b6000604082019050610d0c60008301856108a8565b610d1960208301846108a8565b9392505050565b7f57726f6e6720616c6c6f77616e63650000000000000000000000000000000000600082015250565b6000610d56600f83610976565b9150610d6182610d20565b602082019050919050565b60006020820190508181036000830152610d8581610d49565b9050919050565b6000606082019050610da160008301866108a8565b610dae60208301856108a8565b610dbb604083018461094c565b94935050505056fea2646970667358221220e98574b36606f7f22be5183d72fbe3b3a7791270e46abefb690e0063c17fab1b64736f6c63430008090033",
  "linkReferences": {},
  "deployedLinkReferences": {}
}